:100000000C94A4050C94C1050C947C230C94C1059C
:100010000C94C1050C94C1050C94C1050C94C10548
:100020000C94C1050C94C1050C94B1290C94892A37
:100030000C9466290C94C1050C94C1050C94C1055F
:100040000C94C1050C94C1050C94C1050C94C10518
:100050000C94C1050C948D290C94C1050C94C10518
:100060000C94C1050C94C1050C94C1050C94C105F8
:100070000C94C1050C94C1050C94C1050C94C105E8
:100080000C94C1050C94C1050C94C1050C94C105D8
:100090000C94C1050C94C1050C94C1050C94C105C8
:1000A0000C94C1050C94C1050C94C105050109808F
:1000B000A101850319012AB700150126B700950192
:1000C00075108100C0050C0901A101850419012AE0
:1000D000A002150126A002950175108100C00660DE
:1000E000FF0961A1010962150026FF00952075082E
:1000F00081020963150026FF00952075089102C052
:1001000005010906A101050719E029E715002501E8
:10011000950875018102950175088101050719008F
:1001200029FF150026FF00950675088100050819AE
:10013000012905950575019102950175039101C08D
:1001400009025B00030100A0FA0904000001030199
:100150000100092111010001224000070581030867
:10016000000109040100020300000009211101003F
:100170000122220007058203200001070503032056
:10018000000109040200010300000009211101001F
:100190000122320007058403200001120100020041
:1001A000000008EDFE36650101010203011C037623
:1001B00000690061006C003A00660036003400639C
:1001C0000032006200330063000000400349004237
:1001D000004D0020006B006500790062006F006137
:1001E00000720064002000700072006F0074006FE5
:1001F0000063006F006C00200063006F006E0076EB
:100200000065007200740065007200000008035170
:10021000004D004B000000040309048800AA00A957
:1002200000A8000400050006000700080009000AF5
:10023000000B000C000D000E000F0010001100124A
:100240000013001400150016001700180019001AFA
:10025000001B001C001D001E001F002000210022AA
:100260000023002400250026002700280029002A5A
:10027000002B002C002D002E002F0030003100320A
:100280000033003400350036003700380039003ABA
:10029000003B003C003D003E003F0040004100426A
:1002A0000043004400450046004700480049004A1A
:1002B000004B004C004D004E004F005000510052CA
:1002C0000053005400550056005700580059005A7A
:1002D000005B005C005D005E005F0060006100622A
:1002E0000063006400654185006700680069006A7A
:1002F000006B006C006D006E006F0070007100728A
:10030000007300890087008A008B00E000E100E2B2
:1003100000E300E400E500E600E700010001000161
:10032000000100AA0001000100A800010001000175
:10033000000100460001004A004B00010001004797
:1003400000480001000100A90001000100010001B6
:10035000000100010001003A003B003C003D003E6E
:10036000003F004000410042004300010035004CC6
:10037000003900010044004500520049000100011D
:100380000050004F0029004D004E005100010001B7
:100390000001000100010001000100010001000155
:1003A0000001000100010001000100010001000145
:1003B0000001000100010001004D004A004E004B09
:1003C0000001000100010001000100010001000125
:1003D0000001000100010001000100010001000115
:1003E0000001000100010001000100010001000105
:1003F00000010001000100010001000100010001F5
:10040000000100490001000100010001000100019C
:100410000001000100010001000100FD377A585A77
:10042000000004E6D6B44602002101160000007464
:100430002FE5A3E0277C04B95D003D888986D3DCE5
:100440000AE842C324925842588FD8E75CA0D26190
:100450006E26E888019A676C7887BC8D3709EA5167
:100460001D70D2DBC0939A2FC80D59B8282ED15BCE
:10047000121C51A8974F325CCDE72F59AB6EC4EBDD
:10048000BDD28A6DAAB94E09DF53EA7065FD6BA033
:1004900067E07D66808F25E6716640010C847A27CF
:1004A0008D2FC4CBED530796F883DA029A506BD0A8
:1004B000CE0643247B67F8696513F41500F2AD029C
:1004C000D9E6C09FF561AF9B47E9D457E9C110D683
:1004D000F30A4BC44EBE0272F2F26847DEE5E367F0
:1004E000C0A51DDB8E8C6E31A4A0C928E4D54E9C1E
:1004F000E220AFCE25FF0FA9C5CE0C37696154931A
:10050000E1021EBDCD9115AF2747D3BB7D920BC035
:1005100069EF367BB32D8569B9D1443C8D560446CD
:10052000AFE5214475DC5808CEB0F5599AF8BDC145
:100530002CAABEE1F05D7BB2010AA3B3D3B7F47C71
:10054000CAFF665BB19786C7ADE2E0B074D7839A05
:10055000725CC246205A65205FDC064B76FF6FB4A2
:100560002691ACFB0BC7E8E580FDE2837704DA4B0C
:1005700088DC47DE5709579B7DE12648F5EEEEC241
:1005800080F0FA005F163A4401FE57EB58FAD34266
:1005900062734C5446016E6D2616D8D4FD27183967
:1005A0009F205EAEE358275DC2B6C6E3A3D4F456DF
:1005B0006B4D03E7D9286387D34EC7A899821FBA2A
:1005C000F50D57A808D4D1C2E72557077C1A9C29F6
:1005D0006B49A21F0B0475D2BB89D206050A85227E
:1005E000715F82F502DB7231089992B7406A0E01A1
:1005F00005AB810BC2B078CB32F3A9CD11FAFBA4C5
:10060000DAD79F610F0893883B9FDF7D76FAD59DEF
:10061000E55A2BB7920BF9650C9FD64CD64570A3C3
:10062000E1ECB14F5F866D796D6DEAACF5C0A66601
:100630000CACAEA1BA44D697A5AE54768A69A1EAAD
:1006400021AF390CE42EDF2586EE6311A6A13DF61D
:10065000D7A5F7A59201BE9738129C573B085FE1DA
:1006600095A52BF8C6863713CAEAE93E0E5F9A6B4A
:10067000B6CB22235BCE260B87452DFF82650A0B66
:10068000573B9ED080A50C16484CB7E87825983487
:100690003AB2A4E982DD8303B7FBAB29545DDC4D9C
:1006A000FCDBD67126ADE299AFFBFDC36EDDD6183B
:1006B000D514AA38EC4EE22366CC7D05B18B2DAB68
:1006C000107302674C6925AA053348A5227352B9F5
:1006D000E26C596F0CC32190E6DD2899C24C1C2EA8
:1006E000DBB25631A3A354D299B59C5416DA5134D7
:1006F000499CAD99C6CB8483A58E78C47B632F7645
:10070000EE436122AC7F760F874CC8BBF08AE3379B
:10071000318DC2B10570B12E2CA6057EC303DE96C5
:10072000F12C4D191765C8302A50A10AD750511520
:10073000E927E39D38C15F58753F7A5724A3FEB07F
:1007400098452409DBF9C1781CAA49C3E4EBCFFE24
:100750007AB97B388E5C029442C9D841F94C324850
:100760001301BD7C0DE1FA11111C836A2EC55A904C
:10077000444C15A6DF6B6F0B08F0CB6C7DE7FE01D8
:100780003C4FAD80B796D9D3BBA588695C586890BB
:10079000662DAC00BF51206AFF47E74ABA4F9D67FC
:1007A00080794F6960448B60B720583D816031ED9E
:1007B000997FCEBD8A89525B22CFAFEEA806AE8A62
:1007C0007C772EA293839AB6F4022C5146C1CA4676
:1007D0008B33F9ED7D527C9A2AC385B8D9441F33F7
:1007E000F344830D591DCAF109468EF2E4CB5DB086
:1007F000147673E61E1434183189FEB0D9E675E418
:10080000A62658C459E0FDE4C4E0CD6C68F54F4B12
:10081000EFB5DCF206CAF1A9D35BCB1317616D14F7
:1008200076CEFA47973375A52A353678D4285CF208
:100830002183B4129D8B64803C677B97330B806C63
:100840000F46795A55F6A3E3B7E24EEB96FCED3826
:100850008BE4A7F34E3A449E7C9193140F95038941
:1008600075166E0859458C9408ED149B788A6320A0
:100870009E359DB4D8DB9F18B485FBC20BC14A815D
:10088000E7823E2579E4FF29F6A442A927141D76C4
:100890001ED6F6F79FC01682A33F411E407AC67E41
:1008A000AB132BF856ECBB208CB5DAEC9B8BA9E193
:1008B0009E13C9F5130B7A47B3CF7449EE0904C1EF
:1008C000407F524788DC20B8D74CC41A01DDDCD702
:1008D0001E389552B99B095B208D689D73097F6412
:1008E000A13D82317E6100634FDEA343C3ED10EE74
:1008F000F2C32A00000000977C1F861C225B0900BF
:1009000001D509FD4E00008055BE82B1C467FB02CF
:100910000000000004595A00000000000000000020
:1009200000000000000000000000000000000000C7
:1009300000000000000000000000007E0F00D4FF57
:10094000FFFFC70000007800000000000000002A40
:100950002B28000000000000000000000000000044
:10096000000029000000002C1E34202122243426FF
:1009700027252E362D3738271E1F202122232425F8
:10098000263333362E37381F0405060708090A0BAD
:100990000C0D0E0F101112131415161718191A1B1F
:1009A0001C1D2F3130232D350405060708090A0BBD
:1009B0000C0D0E0F101112131415161718191A1BFF
:1009C0001C1D2F3130354C007B46010203763A68FE
:1009D0007F6577482B353B6978796439141E3C6A0A
:1009E0007A1D16041A1F3D6B061B070821203E6C5A
:1009F0002C19091715223F6D11050B0A1C23406E97
:100A00007E100D182425416F360E0C1227264270D9
:100A100037380F33132D43717534322F2E44727CC7
:100A20007D28303174457351504A524D492A5466DD
:100A3000594F5C5F4C4B4E62635A5D5E6029536751
:100A4000585B56576147554842403E3C3A3B4568E3
:100A500043413F3D2B357E697A790078141E7B6ACD
:100A60007C1D16041A1F7F6B061B07082120656C6E
:100A70002C19091715224A6D11050B0A1C234C6EFF
:100A800049100D182425516F360E0C1227264F7071
:100A900037380F33132D52717534502F2E4E723953
:100AA0007D28304D314B735464586776012A773274
:100AB00059745C5F66020362635A5D5E6029534449
:100AC000575B565561474680291E1F20212223244B
:100AD0002526272D2E2A2B141A0815171C180C1240
:100AE000132F302878041607090A0B0D0E0F333424
:100AF0003579311D1B06190511103637387D557AA9
:100B00002C393A3B3C3D3E3F4041424353475F60B6
:100B100061565C5D5E57595A5B6263464864444562
:100B2000677B7F650301025250514F68696A6B6CA5
:100B30006D6E6F7071725800494C754A4D734B4E13
:100B4000767C777E7466540011241FBECFEFDAE006
:100B5000DEBFCDBF11E0A0E0B1E0ECE0FAE502C0FD
:100B600005900D92AE35B107D9F723E0AEE5B1E0BF
:100B700001C01D92AE31B207E1F70E94C7240C9468
:100B80008D2B0C940000EEE0F3E080E1DF011D927C
:100B90008A95E9F70895E82FE295E7708F709091B4
:100BA0000703923071F09330A9F09130E1F490E1B5
:100BB000E99FF0011124E80FF11DE953F54F8491ED
:100BC000089590E1E99FF0011124E80FF11DE95B20
:100BD000F54FF5CF90E1E99FF0011124E80FF11DE9
:100BE000E953F64FECCF80E808950E94CB05E82F3B
:100BF000E295E770F0E0EE0FFF1FE25FFC4F20810F
:100C000031818F7041E050E0BA0102C0660F771F5A
:100C10008A95E2F7A90146235723452B21F4262B79
:100C2000372B3183208308950E94CB05E82FE2956E
:100C3000E770F0E0EE0FFF1FE25FFC4F4081518153
:100C40008F7021E030E0B90102C0660F771F8A95EE
:100C5000E2F7CB019B0124233523232B31F0809530
:100C6000909584239523918380830895E4EEE80F83
:100C7000E834B0F5F0E0E157F44D0C94D22A85E564
:100C800008958AE508958BE508958CE508958DE52E
:100C900008958EE508958FE5089580E6089581E62C
:100CA000089582E6089583E608958FE6089581E722
:100CB000089582E7089584E7089585E7089587E712
:100CC000089588E708958AE708958CE708958FE7E7
:100CD000089580E7089589E708958BE7089584E5EE
:100CE0000895EDEFE80FE13808F05AC0F0E0E9525E
:100CF000F44D0C94D22A89E10895809105039091D6
:100D0000060380599B4A029708F04EC083E108957C
:100D1000209105033091060320593B4A22303105CA
:100D200008F043C08CE708958FE1089587E20895A5
:100D300080E6089582E608958CE5089583E5089598
:100D40008FE2089589E3089587E308958FE3089576
:100D500087E408958FE4089580E0089586E5089576
:100D60008EE508958FE7089585E608958EE6089547
:100D70008FE6089588E0089580E1089588E1089558
:100D800080E2089588E2089580E3089588E3089555
:100D900080E5089587E508958FE508958DE6089527
:100DA0008F77089587E108958FE008958B35C1F01E
:100DB00058F48331B9F028F48E30B1F08131B1F0BC
:100DC00008958435A9F008958236A1F030F494EAAC
:100DD000980F923090F48AE608958C3769F0089560
:100DE0008DE5089581E1089584E508958FE00895E3
:100DF0008BE508958EE0089587E70895863749F0DA
:100E000028F4833141F08C3541F008958E3739F064
:100E100008958EE708958DE5089581E5089586E7A4
:100E200008958830B9F1E9EAE80FEC33B0F5F0E065
:100E3000E85AF34D0C94D22A87E608958FE7089577
:100E40008BE7089585E608958DE6089582E6089576
:100E500084E608958EE608958CE7089582E008956B
:100E60008EE708958CE0089583E0089584E0089566
:100E700085E0089588E0089580E1089581E008956F
:100E800089E0089588E508958CE5089583E508953F
:100E900088E6089586E7089587E708955198599A56
:100EA00008955898509A08955098589A08955998C6
:100EB000519A0E9454070895E19AE99A0E944E07B8
:100EC0000E945407089510920B0310920A03109287
:100ED000090310920D0380E090E890931201809333
:100EE0001101EBEFF2E01282138208958091FD026E
:100EF00090E001962091FF0230E08223932320911D
:100F0000FE0230E08217930741F40E946307E19AE2
:100F1000E99A0E944E070E9454072FB7F8949091C7
:100F2000FE028091FD02891781F0E091FB02F091B1
:100F3000FC02E90FF11D80819F5F3091FF02932336
:100F40009093FE0290E02FBF08958FEF9FEFFBCFAD
:100F50009C01FB019A9581159F4120F5D901AA2793
:100F6000B270832F8170B90166277470A90144277C
:100F7000587034FF0DC08295807FAB2B09F08062E2
:100F8000672B09F08064452B09F080680995089566
:100F9000AB2B09F08260672B09F08460452BB1F31D
:100FA0008860F4CF80E0F2CF983088F5803178F512
:100FB00040E1949F90011124280F311D877041E07A
:100FC00001C0440F8A95EAF783E0369527958A9504
:100FD000E1F7F901EE0FFF1FE20FF31FED53FE4F94
:100FE00080E090E070E05191DF0111979B01082EA5
:100FF00002C0369527950A94E2F72170219525279E
:10100000242325272C9301968330910561F70895B9
:10101000983078F5803168F540E1949F9001112473
:10102000280F311D982F977083E0369527958A9564
:10103000E1F7F901EE0FFF1FE20FF31FED53FE4F33
:1010400040E050E080E0219130E0092E02C036956A
:1010500027950A94E2F721703327042E01C0220F4E
:101060000A94EAF7822B4F5F5F4F4330510559F7DF
:10107000089580E008958091BD029091BC0298137C
:1010800001C008958F5F8770FACFE2E6F1E0919199
:10109000891303C0DF0111971C9291E0E836F9072C
:1010A000B1F70895982F90958091B202892380938B
:1010B000B20208958091B102882331F01092B102FA
:1010C0001092BB021092BA0208959091F40292FF1E
:1010D00006C0282F28712830F9F4877F846093FF99
:1010E00006C0282F28712831F1F4877E8461209171
:1010F000F50220FF06C0382F38713830D9F4877FC9
:10110000816021FF06C0282F28712831D1F4877E05
:10111000816194FD877E0895282F24712430F9F68B
:101120008B7F8860DCCF282F2471243101F78B7EE0
:101130008861DDCF382F3171313019F78E7F8860AB
:10114000E0CF282F2171213121F78E7E8861E1CFF8
:10115000CF93DF93EC01803E910509F475C090F5C3
:101160008133910509F4B9C088F48932910509F4F5
:10117000ADC08A32910509F4B7C0019709F475C072
:10118000CE010497813A9105D0F46FC0893391055F
:1011900009F452C08238910509F44EC08533910597
:1011A00009F48DC0883A910530F4853A910540F3F1
:1011B000A497D0645AC08F3B910508F4EBC0C0E0FF
:1011C000D0E053C0843E910509F45EC0A8F4823E8D
:1011D000910509F446C0833E910509F44AC0C11542
:1011E00060E4D60708F0E1C0C83ED105F0F1CE01B9
:1011F0009A958F3F9E41C8CF863E910509F44FC016
:10120000873E910509F450C0811523E5920708F047
:1012100072C0811532E5930708F0E7C0811540E5FB
:101220009407E8F2811551E5950708F4C1C0D82F5D
:10123000CC27C16FD06A19C08091F40283708823D3
:10124000A1F0C0EED0E011C08091F40280FDF6C0A4
:101250009091F50290FF09C0C3EED0E084FDAFCFBE
:1012600004C08091F40282FDF7CFCE01DF91CF91CF
:1012700008958091F40282FDE4C09091F50290FD02
:10128000E0CF84FFF2CF9BCF8091F50281FFEDCFBD
:101290008091F402C7EED0E084FD91CFE6CF80913B
:1012A000F40283FDF7CFE1CF8091F40283FDCCC03F
:1012B0009091F50291FFE5CFC4EED0E0D6CF8091BA
:1012C000F40285FFD2CFC9E2D0E0CFCF8091F40203
:1012D00085FFCBCFC5E3D0E0C8CF8091F40286FF75
:1012E000C4CFCAE2D0E0C1CF8091F40286FFBDCF67
:1012F000C1E3D0E0BACF811539E59307A0F5811598
:1013000048E5940708F087C0811555E59507D0F4A6
:10131000811564E5960708F079C08695869520E2E8
:10132000829FC0011124C370DD2721E030E0A901B4
:1013300002C0440F551FCA95E2F7EA01C82BD92B0A
:10134000DA6893CF95558F3F910511F008F037CFAC
:101350008C2F0E946508C82FD0E0DC2FCC27CC272B
:10136000DF71D06282CFC1158AE5D80708F458C072
:10137000CE0190568115904208F021CF8D2F8F71AC
:101380000E94650890E0982F882788279F718C2BF2
:10139000EC01E7CFC85AD0E0CC0FDD1FC15DDE4FB6
:1013A0000990D881C02DD46460CFDF70D06A5DCF42
:1013B0009C0174E0369527957A95E1F72370869520
:1013C0008695837030E2839FC0011124922BC370F5
:1013D00021E030E0A90102C0440F551FCA95E2F791
:1013E000EA01C82BD92BDC6840CF8695869550E260
:1013F000859FC0011124C370DD2721E030E0A901E1
:1014000002C0440F551FCA95E2F7EACFD82FCC2768
:10141000C46FD06A2ACFD82FCC27C06FD06A25CF0F
:101420008C2F8F700E94650834E0D695C7953A9549
:10143000E1F7CF709C2FEC01D06917CFC9E3D0E062
:1014400014CFC2EED0E011CFC6EED0E00ECF80E0D8
:101450000895E091B901F091BA01309729F0019017
:10146000F081E02D0995089580E008952091840190
:10147000309185012817390771F090938501809389
:101480008401E091B901F091BA01309721F0068012
:10149000F781E02D09950895209182013091830113
:1014A0002817390771F09093830180938201E091AE
:1014B000B901F091BA01309721F00084F185E02D57
:1014C000099508959C01FC0132968FEF90E04191BF
:1014D000461751F08F3F19F4411101C0892F9F5FCA
:1014E0009630A9F78F3F09F40895280F311D87FD25
:1014F0003A95F901628308952FB7F8948091F70225
:101500009091F802A091F902B091FA022FBF0895CC
:101510009C014FB7F8948091F7029091F802A09146
:10152000F902B091FA024FBF821B930B089587E72F
:1015300097E7909301088093000888E19AE00FB63E
:10154000F894A895809360000FBE90936000FFCF41
:1015500080918101089508950895FC019B01809177
:101560007401909175018617970740F0672B29F455
:101570008091E8008E778093E800C90140E00097F1
:1015800041F4411106C08091E80082FF2FC080E045
:1015900008952091B8012223A9F12530A9F12091C5
:1015A000E80023FD2DC02091E80022FDECCF209122
:1015B000E80020FFE4CF3091F3002091F200009783
:1015C00019F02830310558F041E02830310509F094
:1015D00040E02091E8002E772093E800D0CF4191A1
:1015E0004093F10001972F5F3F4FE9CF8091B80101
:1015F000882341F0853041F08091E80083FFC3CF1C
:1016000081E0089582E0089583E0089580916E015D
:1016100087FF13C08091E80082FF06C08091E80038
:101620008B778093E80004C08091B8018111F2CFDC
:1016300008958091B8018823D9F38091E80080FF54
:10164000F8CF8091E8008E77ECCF2091E4003091C4
:10165000E50095E6A9018091EC008170882331F0C6
:101660008091E80080FF06C080E008952091E800A6
:1016700022FD1BC08091B801882391F0853091F044
:101680008091EB0085FD10C02091E4003091E500D1
:101690004217530701F391509111DCCF84E0089574
:1016A00082E0089583E0089581E00895E8EDF0E098
:1016B00080818E7F80831092E2001092DA00109277
:1016C000E100A0EEB0E08C9181608C9380818F77F7
:1016D000808319BCA7EDB0E08C918E7F8C938081C4
:1016E0008F7E808310926D010895EF92FF920F9389
:1016F0001F93CF938C017B010E94250BC82F811172
:101700000EC08091E80085FD11C08091E8008E77C1
:101710008093E8000E94250B882399F3C82F8C2F13
:10172000CF911F910F91FF90EF900895F801808164
:101730008093F100F1E0EF1AF108E114F10479F37C
:101740000F5F1F4FDECFCF932091B8012430F1F40B
:101750002091E900C091EC00C795CC27C7952F7068
:10176000C22B22E02093E9002091E80020FF0BC06B
:1017700040E050E060E270E00E94750B8091E8006C
:101780008E778093E800CF70C093E900CF910895E1
:101790000F931F93CF93DF930E947C0A8C010E94CA
:1017A0007607EC01019631F4C8010E94880A843F53
:1017B0009140A8F3CE01DF91CF911F910F91089531
:1017C000982FE42FE2709093E900891308C0762FD8
:1017D000242F50E0E11111C091E0980FF4CF7091E7
:1017E000EC002091ED005091F00021FD06C09F5FBC
:1017F000973049F78093E90008953091EB003E7FE0
:101800003093EB003091ED003D7F3093ED0030914F
:10181000EB0031603093EB007093EC002093ED000F
:101820005093F0002091EE0027FDE1CF0895A0E055
:10183000B0E0EDE1FCE00C94E92AC8EDD0E088814D
:101840008F7E8883E7EDF0E080818160808384E093
:1018500082BF81E080936D0188818E7F888302EE54
:1018600010E0F80110821092DA0081EEC82ED12C1F
:10187000F601108288818F778883888180688883C9
:1018800088818F7D888319BC1092B80110926C01F9
:101890001092A10110926B0190EEE92EF12CF7014C
:1018A00080818B7F808388818160888342E060E0D3
:1018B00080E00E94E00BF60180818E7F8083F8013A
:1018C000808181608083808188608083F70180814E
:1018D0008E7F8083888180618883CDB7DEB7E8E022
:1018E0000C94052B5198599A85E08A95F1F70000E0
:1018F00089B18695817008955098589A85E08A95A7
:10190000F1F7000089B181700895CF93DF93EC0166
:101910000E94720C882311F0209721F4CE01DF91F0
:10192000CF91089585E08A95F1F700002197F0CFD7
:10193000CF93DF93EC010E94720C811102C02097BB
:1019400021F4CE01DF91CF91089585E08A95F1F7DA
:1019500000002197F0CFA0E0B0E0E1EBFCE00C94B8
:10196000E82AC82F10920D03809111019091120165
:10197000809111019091120181159048C9F70E9440
:10198000720C0E947C0CE998F8948BE0E82EFF24FE
:10199000F394D0E0DD24D39494E0C92EBB24B39417
:1019A0000E9457078FE193E00197F1F700C0000014
:1019B0000E9451078FE193E00197F1F700C000000A
:1019C0000E944E0780E197E20E94850C892B71F4FA
:1019D000B0920D0380910D03813009F0A4C0EA9408
:1019E000EE2009F4A0C010920D03DACF00E010E061
:1019F00090E59A95F1F7CE01002E02C09595879556
:101A00000A94E2F780FF0DC0FD240E94540782E390
:101A100090E00E94980C892B39F482E080930D03AA
:101A2000D9CF0E945107F3CF82E390E00E94850C4A
:101A3000892B11F483E0F2CF0F5F1F4F083011059F
:101A4000B9F620E52A95F1F7FF2059F00E945407D6
:101A500082E390E00E94980C892B31F4C0920D0330
:101A6000B9CF0E945107F4CF82E390E00E94850C29
:101A7000892B11F485E0D2CF80E58A95F1F70E9499
:101A800054070CE211E00E947C0C882361F00115E0
:101A9000110511F486E0C2CF95E09A95F1F70000A8
:101AA00001501109F0CF01151105A1F30CE211E06D
:101AB00006C025E02A95F1F70000015011090E94A7
:101AC0007C0C811105C00115110599F787E0A6CF9F
:101AD00001151105D9F38CE291E00E94980C892B35
:101AE00011F488E09BCF0E9463070E944E070E947A
:101AF00054077894E19AE99AC9E10E9476078F3FEA
:101B0000980729F0CDB7DEB7E9E00C94042B8FE9F4
:101B10009FE00197F1F700C00000C150C111EDCF67
:101B20008FEF9FEFEFCF80910D03806180930D03C6
:101B30000E9457078FE39FE10197F1F700C0000073
:101B40000E944E070E9454077894E19AE99AE8CFE0
:101B5000CF9390910703923080F082FBCC27C0F99D
:101B600080FDC26081FDC4608DEE0E94AB0C8A3F97
:101B7000910519F48C2F0E94AB0CCF910895CF934F
:101B8000DF93D82FC92F81E08093E9008FEF9091E8
:101B9000E80095FD07C095ED9A95F1F7000081509A
:101BA0008111F5CF8091E80085FD03C0DF91CF91D1
:101BB000089540E050E068E070E08D2F9C2F0E9477
:101BC000750B8091E8008E778093E80088E0ED2F18
:101BD000FC2FA9E7B1E001900D928A95E1F7E6CFDD
:101BE0008093760170937801609377018091B801BA
:101BF0008430F9F48093E9008FEF9091E80095FD2F
:101C000007C095ED9A95F1F7000081508111F5CF4D
:101C10008091E80085FF0DC040E050E063E070E097
:101C200086E791E00E94750B8091E8008E778093A3
:101C3000E8000895BC0183E00E94F00D0895BC0106
:101C400084E00E94F00D0895CF93C82F6FEF83E2D8
:101C500090E00E94512BCC2361F06CE884E290E08C
:101C60000E94512B62E685E290E00E94512BCF91B9
:101C700008956FEF84E290E00E94512B6FEFF3CF55
:101C80001F93CF93DF93C62F122F632F8230D8F488
:101C9000C830C8F44031B8F490E2C99FE001112483
:101CA00050E0440F551FC40FD51F90E0982F882790
:101CB000C80FD91FCE0187960E94512B612FCE01EC
:101CC00088960E94512BDF91CF911F910895CF9359
:101CD000DF93C7E7D2E060E0CE010E94512B21964E
:101CE000C11584E0D807B9F7DF91CF910895CF935C
:101CF00084E090E00E94432BC82F82E290E00E9493
:101D0000432B982F8C2FCF91089583E290E00E946F
:101D1000432B8F3F89F484E290E00E94432B8C3860
:101D200059F485E290E00E94432B91E0823609F05D
:101D300090E0892F8170089580E0FCCF0F931F936E
:101D4000CF93DF93823030F5683020F5403110F5C5
:101D500020E2629FE001112450E0440F551FC40FA0
:101D6000D51F90E0982F8827C80FD91FCE018796DE
:101D70000E94432B082F10E0102F0027CE018896D9
:101D80000E94432B9801282BC901DF91CF911F910D
:101D90000F91089580E090E0F8CF462F672F2091B3
:101DA000B6013091B701232B91F4703F39F4403FD5
:101DB00071F480918E0190918F010895823038F4F2
:101DC000783028F4403118F40E949E0E089580E087
:101DD00090E00895A0E0B0E0E0EFFEE00C94EA2A85
:101DE0007C010091B5028091B402082BC7E0D0E0DD
:101DF00010E0C8010C2E02C0959587950A94E2F771
:101E000080FD09C02197A8F7D12C8D2DCDB7DEB765
:101E1000E7E00C94062BDC2EB7018C2F0E94CD0E30
:101E20000E94A808019771F3F0CF0F931F93CF93EF
:101E3000FC01828100811181882391F0662381F069
:101E4000C8010E94EA0EC82F682FC8010E94D4075B
:101E5000B8018C2F0E94CD0ECF911F910F91089544
:101E6000C8010E940808C82FF3CFCF93DF93D82F63
:101E7000C92F0E94EA0E6D2F7C2F0E94CD0E0E946A
:101E8000A808DF91CF9108950E94350F282F9295D1
:101E90009F70963091F060F4925F9F70923030F4B2
:101EA00081E0203F79F030F4283E30F080E0089562
:101EB0009A5FF3CF243FD1F7089581E0283EE0F305
:101EC000213FF9CF08958091B2029091B602892BFB
:101ED000809360018091B102882319F10E947C0AED
:101EE0002091BA023091BB02821B930B8838934138
:101EF00010F00E945A08809160019091B102892BE4
:101F00008093600120E082E691E0FC01308101963F
:101F100031112F5F31E088369307B9F721110E9404
:101F20005A0848E050E06BEB71E080E691E00E94D7
:101F30001F2B892BA9F088E0E0E6F1E0ABEBB1E0E4
:101F400001900D928A95E1F7E091B901F091BA0103
:101F5000309731F00280F381E02D80E691E0099521
:101F60000895CF93C82F8823A9F08CEF8C0F813A66
:101F700098F4E2E6F1E088E691E02191C217B1F130
:101F80008E179F07D1F76C2F80E691E00E94620ABE
:101F90000E94630FCF91089580E28C0F883068F41F
:101FA000C77021E030E001C0220FCA95EAF78091A6
:101FB000B202822B8093B202EBCF8BE58C0F833081
:101FC00038F42C2F2452330BC9010E94360AE2CF79
:101FD000C85AC731F8F6EC2FF0E0EE0FFF1FE15DB5
:101FE000FE4F808191810E944C0AD4CF8C2F0E9499
:101FF00045080E94630FC7CF882339F19CEF980FE3
:10200000913A28F40E9445080E94630F089590E2D7
:10201000980F983050F4877091E001C0990F8A951D
:10202000EAF7892F0E945208EFCF9BE5980F933073
:1020300028F480E090E00E94360A0895885A87319B
:1020400020F480E090E00E944C0A08950F931F93C3
:10205000CF93C82F00E010E0893311F400E510E0C1
:102060008C2F0E94B10F0115110539F48C2F0E949D
:10207000FC0FCF911F910F9108958FE99FE0019779
:10208000F1F700C0000001501109EDCFA0E0B0E071
:10209000ECE4F0E10C94EA2AEC019881992309F42C
:1020A0009CC09130E1F599818A81913021F422968A
:1020B0000E94261005C0923029F422960E94B10F8A
:1020C0002196EBCF933021F422960E94FC0FF8CF9B
:1020D000943011F02196F4CF229620E030E06AE0AF
:1020E000AE014F5F5F4F8053990B8A30910560F0CE
:1020F0002115310529F38FE99FE00197F1F700C021
:10210000000021503109F4CF629FF001639FF00D70
:1021100011249C012E0F3F1F8981EA01E1CFE92F95
:10212000F0E0E95BF64FD490292F26952695269569
:1021300030E0F901E95CF64F84919770F901E95DAF
:10214000F64FE490F12C092E02C0F594E7940A941E
:10215000E2F741E0E422FF24F901E95EF64F049141
:1021600010E0092E02C0159507950A94E2F7017058
:102170001127E82FF0E002C0F595E7959A95E2F770
:10218000E0FD0CC0E114F104A1F48D2D0E94261095
:102190000115110509F494CF8CE28ACF81EE0E94DB
:1021A000B10FE114F10479F48D2D0E94261081EE17
:1021B00007C086EE0E94B10F8D2D0E94261086EE7C
:1021C0000E94FC0FE5CF86EE0E94B10F8D2D0E947C
:1021D000261086EE0E94FC0FEACFCDB7DEB7E7E00F
:1021E0000C94062B882339F09091B202892B8093AE
:1021F000B2020E94630F0895882321F00E945208C2
:102200000E94630F08950F931F93CF93DF93C62F00
:10221000D42F122F8823A9F06093AF020E947C0A6A
:102220009093690180936801C77081E001C0880FB5
:10223000CA95EAF70E94F210DF91CF911F910F919A
:1022400008958091AF02681332C080916801909127
:1022500069010E94880A883C910548F5CD130CC09D
:10226000812F0E942610D77081E001C0880FDA9577
:10227000EAF70E94FC10E0CFC77001E0802F01C098
:10228000880FCA95EAF70E94FC1080E28D0F883013
:1022900050F48D2F877001C0000F8A95EAF7802FC8
:1022A0000E94F210DDCF812F0E942610C5CFC7708B
:1022B00081E001C0880FCA95EAF7DBCF882339F0A7
:1022C0009091B602892B8093B6020E94630F089505
:1022D000882341F080959091B60289238093B602BD
:1022E0000E94630F089580E090E00E94360A80E02B
:1022F00090E00E944C0A1092B6020E94630F08956B
:102300001092B202E2E6F1E086E0DF011D928A95CA
:10231000E9F70E9473110895CF93DF9380910D0325
:10232000882391F080910D038075811107C0809101
:102330000C038B3019F48CE080930C0310920D0386
:1023400010920B0310920A0380910903882309F16C
:1023500090910903809108039817D9F085FF04C074
:102360009091090394FD06C084FF0BC0809109037E
:1023700085FF07C080910C038B3019F48CE08093AB
:102380000C03809109038093080310920B031092B1
:102390000A03E0910C03ED30D0F4F0E0EC56F34D7D
:1023A0000C94D22A10920703109206031092050390
:1023B000109208030E94C3050E947C0A90930403B4
:1023C0008093030381E080930C030E945C0781E00B
:1023D000DF91CF9108950E9476070196E1F78091F1
:1023E0000303909104030E94880A893B9B4078F381
:1023F00082E080930C03EBCF8FEF0E94AB0C8A3FFF
:10240000910511F486E0F5CF83E0F3CFE9980E94BF
:1024100057072E98269A2F98279A0E947C0A909305
:1024200004038093030384E0E4CF8091030390913D
:1024300004030E94880A853F914048F285E0D9CF85
:102440002E9826982F9827980E9463070E945C0771
:102450000E947C0A9093040380930303D3CF0E94CD
:102460007607019609F4B3CF0E947C0A9093040387
:102470008093030387E0BDCF809103039091040311
:102480000E94880A853F914018F089E080930C03F0
:102490000E947607019609F49ACF0E947C0A9093D5
:1024A00004038093030388E0A4CF809103039091F9
:1024B00004030E94880A853F914018F089E08093C8
:1024C0000C030E947607019609F481CF89E091CF31
:1024D00080910903813159F48DEF9FEF90930603AA
:1024E0008093050382E0809307038AE082CF82EF26
:1024F0000E94AB0C8F3F980731F4909306038093B2
:10250000050381E0F0CF8A3F910519F08EEF9FEF30
:10251000E5CF0E94C80BEC01CF3FDC0729F41092F5
:10252000060310920503DECFDC2FCC270E94C80BD8
:102530009E01282BC9019093060380930503009701
:1025400089F28F3F9807E9F29C012D5F3F4F2230BF
:10255000310540F228583B4A2230310520F08239BB
:102560004BEA940781F480EF0E94AB0C8A3F9105FF
:1025700009F0B8CF83E00E94AB0C8A3F910509F0C7
:10258000B1CF83E0B0CF9C0120593B4A22303105C6
:1025900038F582E08093070380EF0E94AB0C8A3FFE
:1025A0009105B9F0809105039091060381399B4A0A
:1025B00009F09BCF80EF0E94AB0C8A3F910509F098
:1025C00094CF83E00E94AB0C8A3F910509F08DCF38
:1025D000D8CF82E80E94AB0C8A3F910519F785CFCE
:1025E000803B3FEB930769F2882781154BEA9407FC
:1025F00009F478CF81152FEB920719F281159F47C7
:1026000009F4BFCF80EF0E94AB0C8A3F910509F01F
:10261000AACF82E00E94AB0C8A3F910509F0A3CFBC
:1026200061CF809107038230C1F0833099F08BE055
:1026300080930C030E9476078F3F980709F4C7CE5A
:10264000009719F08F3F910569F40E94C3050E941D
:102650008011BDCE88EF0E94AB0C0E94290A0E9417
:10266000A80DE5CF90910703923009F44DC0933047
:1026700009F402C1913009F0AACE90910003923082
:1026800099F158F491111AC0803E71F0813E81F0A9
:1026900087FD10C00E94F5059ACE933069F1943001
:1026A00079F11092000393CE81E0809300038FCEE6
:1026B00082E0FBCF8F770E94140689CE8A3A89F395
:1026C00058F48A3271F3863361F387FD07C00E94A4
:1026D00036060E94F505E5CF863BF6CF8F770E9440
:1026E00036060E941406DDCF8D3121F08D39C9F6F2
:1026F00084E0DBCF83E0D9CF853499F685E5E9CF57
:10270000853C79F685E5EDCF982FE0910103E9301E
:1027100078F5F0E0EF55F34D0C94D22A20910503A3
:102720003091060320593B4A2230310518F40E94AB
:10273000D606982F903E99F048F49338B1F08FE781
:102740009438A1F097FD07C0892FA4CF913E59F08E
:1027500081E0903F29F00E94C3058CE04ACE82E0E0
:102760008093010334CE84E0FBCF82E00E94F50524
:10277000109201032CCE20910503309106032059BD
:102780003B4A2230310520F48131B1F0813469F0C7
:10279000893571F3803F39F0823151F31092010392
:1027A00087FDD9CF05C083E0DBCF109201039CE702
:1027B000892F0E9471066ECF1092010393E1F8CF2A
:1027C000209105033091060320593B4A2230310500
:1027D00018F40E94D606982F933841F0943851F09F
:1027E0001092010397FDB7CF892F65CF82E00E9439
:1027F0001406BECF8FE7FBCF20910503309106036F
:1028000020593B4A2230310520F4813169F081346E
:1028100091F0823109F4ACCF893509F4A9CF109237
:10282000010387FD98CF03C01092010393E1892F24
:102830000E94710640CF109201039CE7F8CF8431CB
:1028400029F0803F09F094CF86E08ACF85E088CFD9
:10285000873709F08DCF80E089CF843109F088CFA8
:1028600087E07ECF803F09F083CF88E079CF87373C
:1028700009F07ECF80E0BBCF982F8F3B29F038F452
:1028800026E5280F223028F41092020366CF8C3FF1
:10289000D9F3209102032223D9F0213009F097CDFA
:1028A00010920203209105033091060322394BEA6E
:1028B000340709F045C00E94FE06982FEDE7E90FA6
:1028C000EB3008F054C0F0E0E655F34D0C94D22AFA
:1028D000209105033091060322394BEA340781F435
:1028E0000E94FE06982F9E3888F4933830F1EDE769
:1028F000E90FEB3010F5F0E0EB54F34D0C94D22AD5
:1029000021393B4A81F70E941107ECCF903F09F033
:102910005ECD81E0809302035ACD82E0BBCE8FE78B
:10292000B9CE88E6B7CE88E7B5CE80E0B3CE81E0F9
:10293000B1CE89E0AFCE8AE0ADCE97FD48CD04CFD1
:1029400021393B4A09F0BACF0E941107B6CF82E085
:10295000B2CE8FE7B0CE8BE0AECE86E0ACCE80E0DC
:10296000AACE81E0A8CE89E0A6CE8AE0A4CE97FDCB
:102970002ECD3ACF0E94801110920C0328CD0E94D8
:1029800080112FEF84E39CE0215080409040E1F7DC
:1029900000C0000088E19AE00FB6F894A8958093F3
:1029A00060000FBE90936000FFCFAAE2B0E0EBEDB5
:1029B000F4E10C94EE2A8EE691E0FC010196209160
:1029C000F100208321E086379207B9F780916F01EB
:1029D000893009F456C0C8F4823009F4B3C083309A
:1029E00009F482C0813071F18091E80083FFE7C073
:1029F00080916E0190916F019A3008F0E0C0E92F4C
:102A0000F0E0E054F34D0C94D22A8A3009F489C0E6
:102A10008B3051F780916E01813231F780917201D4
:102A200090917301892B01F78091E800877F809353
:102A3000E8000E94060B80917001809300010E94C3
:102A40008011D2CF80916E01813A71F68091E800B9
:102A5000877F8093E8008091720190917301892BA8
:102A600061F060E080E090E070E00E94AD0A80914B
:102A7000E8008B778093E800B7CF68E089E791E0C2
:102A8000F3CF80916E01813209F0AECF8091720157
:102A9000909173018D7F892B09F0A6CF8091E8007A
:102AA000877F8093E8008091E80082FF18C09091B2
:102AB000F3008091F200029731F48091F1008130AF
:102AC00011F0863021F48091F10080938101809192
:102AD000E8008B778093E8000E94060B85CF8091F9
:102AE000B8018111E0CF80CF80916E01813A09F069
:102AF0007BCF8091720190917301892B09F074CF83
:102B00008091E800877F8093E8008091E80080FF53
:102B1000FCCF809100018093F1008091E8008E77D6
:102B2000D9CF80916E01813209F05ECF8091E800AB
:102B3000877F8093E8000E94060B8091710180934B
:102B40006A0152CF80916E01813A09F04DCF809198
:102B5000E800877F8093E8008091E80080FFFCCF49
:102B600080916A01D8CF803889F0823841F5809110
:102B700072018F70873018F58093E9008091EB0027
:102B800085FB882780F91092E90006C080916B01CF
:102B90009091A101911182609091E800977F9093AC
:102BA000E8008093F1001092F1008091E8008E77A8
:102BB00023C0811116C080917001813011F1809184
:102BC000E80083FF0AC08091E800877F8093E800D7
:102BD0008091EB0080628093EB00AA96E3E00C9476
:102BE0000A2B823061F780917001882389F010925E
:102BF000E9008091E800877F8093E8000E94060B3F
:102C0000DECF81E0933009F080E08093A101EFCF27
:102C1000809172018F702FEF280F263080F68093FD
:102C2000E9002091EB0020FFE2CF933031F4809156
:102C3000EB0080628093EB00DACF9091EB00906123
:102C40009093EB0021E030E0A90102C0440F551F32
:102C50008A95E2F74093EA001092EA008091EB0037
:102C60008860E8CF8111ABCF109170011F77809100
:102C7000E3008078812B8093E3008091E800877FD8
:102C80008093E8000E94060B8091E80080FFFCCF53
:102C90008091E30080688093E30083E0111101C01C
:102CA00082E08093B8018BCF8058823008F087CFC4
:102CB00040917001509171014C3D83E0580799F5A6
:102CC00083E08A838AE289834FB7F894DE01139602
:102CD00020E03EE051E2E32FF0E050935700849172
:102CE00020FF03C082958F703F5F8F708A30C8F0DD
:102CF000895C90E08D939D932F5F243161F74FBFE6
:102D00008091E800877F8093E8006AE270E0CE015E
:102D100001960E94AD0A8091E8008B778093E800CD
:102D20004ECF805DE6CF8091720190917301252F87
:102D300033272330310509F44AC078F521303105B5
:102D400009F483C08BE590E0E0E4F1E02230310546
:102D500009F035CF2091E800277F2093E8002091EB
:102D60007401309175018217930708F49C0140E0CB
:102D70002115310509F06EC041116CC08091E80049
:102D800082FDC9CF8091B801882329F2853019F2DC
:102D90008091E80083FFF2CFBECF2132310509F4E4
:102DA00045C02232310509F00ACF8330910508F081
:102DB00006CFFC01EE0FFF1FED5DFE4F0190F0818D
:102DC000E02D805E9E4FDC018C9190E010C0CA0126
:102DD0009927423019F18330910568F4892BB1F4B9
:102DE000E7E1F2E0E4918E2F90E0E7E1F2E0009776
:102DF00009F4E5CEAFCF039709F0E1CEEDEAF1E0BB
:102E0000E4918E2F90E0EDEAF1E0F1CFEDE0F2E019
:102E1000E4918E2F90E0EDE0F2E0E9CFEBECF1E011
:102E2000E4918E2F90E0EBECF1E0E1CF833091055F
:102E300008F0C5CEFC01EE0FFF1FE75DFE4F0190CD
:102E4000F081E02D89E090E085CF82E190E0EBE930
:102E5000F1E080CF8091B801882309F45CCF853000
:102E600009F459CF8091E80083FD55CF8091E800A7
:102E700082FD84CF8091E80080FF7ACF9091F300AB
:102E80008091F2002115310519F08830910550F03C
:102E900041E0089709F040E08091E8008E77809348
:102EA000E80066CF44914093F100319621503109FA
:102EB0000196E8CF803809F082CE8091E800877FC4
:102EC0008093E80080916C018093F1006ECE8111B7
:102ED00076CE10917001123008F071CE8091E8002A
:102EE000877F8093E80010936C010E94060B1123EA
:102EF000D1F084E08093B80142E061EC81E00E946F
:102F0000E00B42E261EC84E00E94E00B42E261EC03
:102F100082E00E94E00B42E260EC83E00E94E00B62
:102F20008091B8014CCE8091E30087FDE2CF81E033
:102F3000E1CF8093B4020E94731108958093B5028B
:102F40000E947311089521E030E001C0220F8A959C
:102F5000EAF78091B502822B0E949E170895909106
:102F6000F50292FF10C098E0899F90011124622B16
:102F70006093B7020E94A3170E947C0A9093B90243
:102F80008093B80208950E94A317089521E030E0CD
:102F9000A90102C0440F551F8A95E2F7CA01809526
:102FA0009091B50289230E949E1708952091B7023F
:102FB000809582238093B702982F9770911117C044
:102FC00030E0482F082E000C550B2417350779F0F8
:102FD0009091F50292FF0BC08595859585950E948D
:102FE000C6171092B7021092B9021092B802089553
:102FF000CF93C091F502C2FB992790F9981791F0F1
:1030000080FBC2F9C093F5026091F40284E090E085
:103010000E94512B6C2F82E290E00E94512B82E0A3
:103020000E94D617CF9108958091B502982F96707F
:10303000963021F488600E949E170895877FFBCF09
:10304000CF93DF93EC018989811119C081E0898BCD
:103050008091B2029F81892B8093B2028091B60247
:103060009885892B8093B6020E94630FEA81FB81C9
:103070006C897D89309719F0CE0106960995DF910C
:10308000CF910895EF92FF920F931F93CF93DF9309
:10309000EC018A85811138C0EB80FC8087E5F81A45
:1030A00026E12E9DC0012F9D900D1124DC01A15021
:1030B000BE4F1496ED91FC911597309731F05496D0
:1030C0006D917C918B5F9D4F099586E18E9D80016E
:1030D0008F9D100D112401501E4FF80187810E9411
:1030E0005208F801908590958091B60289238093CB
:1030F000B6020E94630F188219861B861E821D82EB
:103100001092FE011092FD01CDB7DEB7E6E00C94FF
:10311000072BAAE0B0E0EFE8F8E10C94E42AA090D5
:103120000D01B0900E0181E090E090930E0180932C
:103130000D01812C912C712C6401F12C15C0F8012A
:10314000259134914E2D6F2D872D0E94400E0E5FDC
:103150001F4FE39480E1E812F2CF80E1C80ED11C4A
:10316000F39488E0F81639F08601000F111F055E10
:103170001D4FE12CE4CF80E8880E911C711003C034
:1031800077247394D9CF1A8219821C821B821E82E3
:103190001D8218861F8288EC90E09A87898707E253
:1031A00012E04AE050E0B801CE0101960E94752B72
:1031B000065F1F4F073782E0180799F7B0920E019C
:1031C000A0920D012A96EDE00C94002B80E00E9465
:1031D000240E60E086E290E00E94512B0E94891844
:1031E0000E94670E81E00E94240E089568EE7EEF33
:1031F00080E090E00E946F2B60E082E090E00E940F
:10320000512B60E083E090E00E94512B1092B402B9
:1032100060E084E090E00E94512B64E082E290E064
:103220000E94512B60E085E090E00E94512B60E00D
:1032300086E090E00E94512B6FEF87E090E00E94C3
:10324000512B40E050E0BA0188E090E00E94632BEF
:1032500060E08DE090E00E94512B40E050E0BA0128
:1032600088E190E00E94632B60E087E190E00E949B
:10327000512B40E050E0BA018CE190E00E94632BBA
:1032800060E070E080E290E00E946F2B40E050E050
:10329000BA0188E190E00E94632B80E00E94240E36
:1032A0000E94E61840E050E0BA018FE090E00E94F2
:1032B000632B40E050E0BA0183E190E00E94632B71
:1032C0000895282FCB01283070F44AE0249F900104
:1032D0001124B901695D7D4F4AE050E00E94332B13
:1032E00080E090E008958FEF9FEF0895A4E0B0E0B4
:1032F000ECE7F9E10C94E62A6C01DC019C91119653
:103300008C91119713962D913C91232B09F465C153
:1033100089238F3F09F461C161E0C6010E94150F46
:103320008C01F6018281811111C0D60112968C9117
:10333000811149C00031FFE51F0709F452C1013175
:103340002FE5120709F053C182E04CC180910F01B3
:1033500090911001019649F35FEFE52E51E0F52EB3
:10336000A12CB12C9924939480910F01909110017C
:103370008A159B05D4F2F70186818823E9F08185BF
:1033800092850817190739F48091FD019091FE018B
:103390000817190789F0D7011F969C921F971C9652
:1033A0001C930E931B97C7010E942018C701069615
:1033B0000E9442181092B602BFEFAB1ABB0AE6E1B8
:1033C000EE0EF11CD1CF980122513F45203131053D
:1033D00008F43DC00031FFE51F0709F4E8C00131E2
:1033E0002FE5120709F401C17801B7E5FB1AEFEFE9
:1033F000EE16F10409F008F433C1033FFCE51F07A2
:1034000009F446C208F0BCC1083D3CE5130709F4C5
:103410003BC2093D4CE5140709F444C226E241EEE3
:1034200061EE073D5CE5150709F435C2F6018281BE
:1034300081113BC20631FCE51F0709F0BBC1809139
:10344000B00281111AC389E20E94450813C38FEFAD
:1034500093E00E94432B8111AFC04EEEF42EF00E8C
:1034600007E712E0F1103CC0809113019091140124
:10347000A0911501B091160189839A83AB83BC8317
:1034800078014FEFE41AF40AC8010E94432B8983A4
:103490001A82882309F490C0813009F082C0580153
:1034A00052E0A50EB11CC7010E94432BF82E8A835F
:1034B000882309F481C0C5010E94432BE82E8FEFB9
:1034C0008F0D8330D8F4EB82EE2021F0CE010196EF
:1034D0000E944610580183E0A80EB11C8501D0CF90
:1034E000011534E0130709F467C0C8010E94432B9B
:1034F0000F5F1F4F8111F4CFFA94B4CF8BEF8F0D74
:10350000833040F5580193E0A90EB11CEB82EE2008
:1035100029F3C5010E94432B8C83882381F08B8182
:103520009C818130AFEF9A0710F0982F8827B6E082
:10353000FB1651F0E7E0FE1651F00E9446225801BA
:10354000F4E0AF0EB11CCACF0E94DD21F8CF0E947B
:103550001222F5CF24E0F212C1CF580134E0A30EBD
:10356000B11CC80103960E94432BEE2029F1882349
:1035700019F18150990B4FEF489F9001499F300DF1
:1035800011244E2D4150550B240F351F2150310968
:1035900008F4A4CF8FE99FE00197F1F700C0000085
:1035A000F5CFCE0101960E944610570197CF81E0DA
:1035B0000E94A3170E9414188091B7028770882375
:1035C00061F0D60112968C91882339F08091F50232
:1035D00082FF03C082E00E94D6172496EBE00C9491
:1035E000022B81E00E94C617E5CF82E0E1CF0115F2
:1035F000A7E51A0708F4DEC00115B8E51B0708F0B7
:10360000FCCE7801E7E5FE1A63EF71E08E2D0E9493
:103610006119892B29F586E18E9DF0018F9DF00DB2
:103620001124E150FE4F8681813009F084C08091E1
:10363000F3019091F401892B99F08091F50190911B
:10364000F601892B69F08091F7019091F8012091A2
:10365000F9013091FA01822B932B892B09F475C063
:1036600080910F01909110018E159F0524F4F09226
:103670001001E0920F01D60112969C9186E18E9D79
:1036800050018F9DB00C1124F501E150FE4F7F01D8
:10369000908B8681992309F466C0128701878F5F1A
:1036A00086830E947C0AD7011E969C938E931D9759
:1036B0008091B10217968C9317978091B6029091E2
:1036C000B202892B18968C931897ED91FC91119763
:1036D000309739F054966D917C91C5018B5F9D4F69
:1036E00009951093FE010093FD01F6018281882364
:1036F00009F4A0CE1092AF0201362DE5120709F0B1
:10370000F3C00E94770E9093F502809584FB80951C
:1037100084F98093F4026091F4021091F50284E040
:1037200090E00E94512B612F82E290E00E94512B89
:103730000E94801141CF823009F092CF8091F70131
:103740009091F801892B09F48BCF26E12E9DC001C1
:103750002F9D900D112481509E4FDC0150961C929C
:103760000E9420187DCF882309F4BFCF8189882348
:1037700009F4BBCFC5018B5F9D4F0E944218B5CFA6
:10378000053F9CE5190709F489C027E245EE66EE7E
:10379000063FACE51A0709F47EC027E245EE64EE69
:1037A000043FBCE51B0709F476C0D60112968C9144
:1037B0008111A0CFF6018281E080F180882309F495
:1037C00096C1C7010E94EA0E182F682FC7010E94F8
:1037D000D407B701812F0E94CD0E0E94A8088C014A
:1037E000D6011296EC9012971596BC90B2942FE0E9
:1037F000B2228091B70287708823C1F0AE2CEE20F0
:10380000B1F0812F807F803421F080E2800F8830FA
:1038100068F08091F50282FF09C082E00E94D6170D
:103820008091B7028770AA24A3948111A12C812FC3
:1038300082958F70883009F462C208F079C18430B3
:1038400008F05AC1B12FBF70FB2E823008F481C13D
:10385000107F103219F0F29480EFF822002309F45F
:10386000AFC1013009F413C2EE2009F41CC2BB2021
:1038700009F4EAC1D60115968C91159780FF7FC196
:103880008F7015968C93E0C127E245EE65EE03C07C
:1038900026E241EE60EE0E9403118ECE26E241EE5A
:1038A00062EEF9CF28E241E0F1CF1092AF0206318B
:1038B0004CE5140758F502305CE5150708F4E8C03C
:1038C0000E94770E9093F5028093F402F801E35082
:1038D000FC458091F4028160E331F10508F019CFD5
:1038E000E653F34D0C94D22A02363DE51307F8F265
:1038F000053A8DE5180709F0E5C00E94770E909310
:10390000F502809580FB809580F903CFC8018A5F1E
:103910009C45099708F099C00E94770E9093F50294
:103920008093F402F801EB5FFC45E830F10580F488
:10393000E352F34D0C94D22A8091F4028260E9CED6
:103940008091F4028460E5CE8091F4028860E1CE3B
:103950008091F50281608093F502DDCE8091F502C1
:103960008260F9CF8091F4028061D3CE8091F4021D
:103970008062CFCE8091F4028064CBCE0E94801111
:103980008091F4028068C5CE8091F4028C60C1CE33
:103990008091F5028360DFCF8091F4028E7FB9CEF3
:1039A0008091F4028D7FB5CE8091F4028B7FB1CEF1
:1039B0008091F402877FADCE8091F5028E7FCBCFD0
:1039C0008091F5028D7FC7CF8091F4028F7EA1CECA
:1039D0008091F4028F7D9DCE8091F4028F7B99CEF1
:1039E0000E9480118091F4028F7793CE8091F4022F
:1039F000837F8FCE8091F5028C7FADCF8091F402D2
:103A000082FB992790F921E0922790FB82F990FBA5
:103A100083F97FCE8091F502982F909591708E7FDB
:103A2000892B90FB81F997CF0E9480119091F4022D
:103A3000892F97FB87F980586CCE61E08EE090E08B
:103A40000E94512B68CE60E0F9CF06319CE5190742
:103A5000B1F48091B2028A7A91E0811101C090E0C4
:103A60009093B00265E3811101C069E280E691E0C4
:103A70000E94620A0E94630F9FCD85E3E5CC0B355F
:103A8000ADE51A0791F1D0F40E3DECE51E0701F10A
:103A900081E00A35FDE51F0729F101151C4509F0F4
:103AA00089CE0E9480115FEF84E39CE051508040FA
:103AB0009040E1F700C000000E94970A0C353DE5F8
:103AC000130749F0073A1D4509F074CE0E94BF1450
:103AD0000E94F618FBCF8091F50282FB882780F9BF
:103AE00091E089270E94F81765CE80E0FBCFC701DF
:103AF0000E940808182F6DCE843009F4E5C0AA2072
:103B000009F4D7C18091B70280FDD3C1F6011282BA
:103B10008595859585950E94A317C6010E94761903
:103B20008091B7028595859585950E94C617C1C17C
:103B3000893009F455C18A5F8F70823000F7023FE7
:103B400009F05FC1812F8F71E11058C10E94A31746
:103B500003C1103118F0F29490EFF922EE20B9F081
:103B6000FF2069F080E2800F883010F0011109C059
:103B70008091B2028F298093B2020E94630F802F3E
:103B80002FC08091B6028F298093B602F6CF802F86
:103B90000E94FC0FFF2009F4B2CF80E2800F883032
:103BA00010F0011104C08F2D0E94520806C0F0943D
:103BB0008091B6028F218093B6020E94630F9FCF3F
:103BC0009091F50292FD16C0EE2069F0FF2039F0C9
:103BD0008091B2028F298093B2020E94630F80E02D
:103BE0000E94B10F8CCF80E00E94FC0FFF2009F4EF
:103BF00086CFD9CFEE2051F1B11006C08091B1022D
:103C00008F290E94F2107BCFE1E0BE1211C080919B
:103C1000B10292FF74CFF82AF81609F470CF0E940F
:103C20007C0A9093BB028093BA02F092B10267CFF4
:103C3000F5E0BF12E3CF0E945A089091B3028F2D96
:103C4000892B89138093B3028F2DDBCFB11003C072
:103C50000E945A0813C021E0B21214C08091B2022F
:103C60008F21882309F44BCF0E945A089091B30208
:103C70008F2D8095892389138093B3028F2D0E9405
:103C8000FC103DCF35E0B31609F439CFE1CFEE207B
:103C900029F045E04B1508F432CFD6CF54E05B1540
:103CA00008F42DCFEBCFBB2049F3093349F4BFEF24
:103CB000E7EEF3E0B150E040F040E1F700C0000073
:103CC000802F0E94FC0F1BCF812F869586958370D5
:103CD000882361F0813009F012CFC8019370E110A0
:103CE00002C080E090E00E944C0A09CFC8019370A6
:103CF000E11002C080E090E00E94360A00CF812FE0
:103D00008370811136C0E11027C0402F429546953F
:103D10004770440F440F802F8F70042E01C0880F0E
:103D20000A94EAF70071002341F02FE030E001C06F
:103D3000220F4A95EAF7022F0095169516951370F3
:103D4000123091F0133071F02091B402113049F02B
:103D5000802B82230E9499170E94290A0E94A80D95
:103D6000CECE822B802BF6CF802B9091B402892768
:103D7000F1CFEE2051F110FFEFCF402F4295469545
:103D80004770440F440F802F8F70042E01C0880F9E
:103D90000A94EAF70071002341F02FE030E001C0FF
:103DA000220F4A95EAF7022F009516951695137083
:103DB000123089F0133069F02091B502113041F0D2
:103DC000802B82230E949E17C7CF823028F2D5CF46
:103DD000822B802BF7CF802B9091B5028927F2CFD1
:103DE0001F70EE2039F0812F0E94A317802F0E94B0
:103DF000F210B2CF802F0E94FC10812F0E94C617B4
:103E0000ABCF033F70F4003FB9F0013FB9F1EE20B2
:103E100009F474C0BB2009F46EC0802F0E94B10F5A
:103E20009BCF033FD9F0043F29F1E110F3CFB1104C
:103E300073C0812F8F71E2CFEE2069F024E02B1543
:103E400008F48ACF1F7181E090E0012E01C0880F35
:103E50000A94EAF7C1CF35E0B316F2CF80E0EE2046
:103E600009F4B0CF1F7181E0012E01C0880F0A94C0
:103E7000EAF7A8CF8091F50282FD06C0812F8F71ED
:103E8000EE2009F4BBCF62CEEE2021F18091B70283
:103E90008770843099F41092B7021092B902109290
:103EA000B802812F8F710E94C6170E94290A0E94B2
:103EB000A80D60E0C6010E94150F8FCB44E04B15A2
:103EC000A0F31F71812F0E94A31763E0812F0E942E
:103ED000AF17EBCF54E05B1550F41092B70210927D
:103EE000B9021092B80264E0812F8F71F0CF81E0A7
:103EF0000E94D617DACF812F8F7128CEBB2009F40C
:103F000098CF093349F48FEF97EEA3E081509040AA
:103F1000A040E1F700C00000802F0E94FC0F1CCFE2
:103F20001F93CF93DF938091F302803108F04CC050
:103F30008091F002882309F447C08091BD0220914E
:103F4000BC026091EE023091EF02C091F102D0917B
:103F5000F202732F76232817B9F190E0209709F425
:103F600043C016E07F3F09F43FC0189FF001199F3E
:103F7000F00D1124DF01A254BD4F11964C91119701
:103F800034132CC04C91461329C012964C911297B1
:103F900041111EC013964D915C914C1B5D0B483C2A
:103FA0005105E0F48091F3028F7080618093F302F9
:103FB000ED53FD4F80818F70806180838EEE92E0A3
:103FC0000E9476190E943B08DF91CF911F910895BE
:103FD0000196877099272813C8CFF6CF019687706E
:103FE00099272813BFCFF0CF01968770B4CFABE0ED
:103FF000B0E0EDEFFFE10C94E52A8C0185E0F801DB
:10400000DE01179601900D928A95E1F7F801C280C2
:10401000A380B4808EEE882E82E0982E8091EE02EE
:104020009091EF022091F1023091F20221153105B9
:1040300009F410C1492F48234F3F09F40BC1D09018
:10404000F002A501421B530BDD2009F4D4C0F0900F
:10405000F302483C510508F0AEC021815FE05F15D6
:1040600008F46BC0EC2C291313C09081981310C076
:10407000C1101EC08F2D8F7080618093F302C40128
:104080000E9476198091F302F8018583E12C50C0DB
:104090008F819885A114B10489F0282F29232F3FFF
:1040A00069F0E091BD022091BC0236E0CC20E1F045
:1040B0008091F30281608093F302E8CFCC2031F34A
:1040C000F7CF4E2F50E03E9FF0011124E254FD4FF8
:1040D0006181691306C06081861303C0628161112A
:1040E000D5CFFA013196E770E213EBCF8F81988537
:1040F0000E94350F292F22952F70903248F49F701F
:10410000992311F08823A1F0805E883088F004C0E4
:10411000225F2F70223028F0C8010E947619ED2C02
:1041200007C09F70992381F3F8019581903160F762
:104130008E2D2B96ECE00C94012B291312C090814C
:1041400098130FC0C1100DC0F582C8010E947619E6
:1041500086E0F801AEEEB2E001900D928A95E1F7AB
:1041600027C0F801808191810E94440F882309F4BF
:104170006DC0CC2009F46AC08091F302803270F0E7
:104180008091EE029091EF029A8389831B82BD8217
:10419000AC82FE82CE0101960E94761986E0F8017B
:1041A000AEEEB2E001900D928A95E1F70E94901F69
:1041B000EE24E394BDCFFFE0FF1550F08EEE92E0C9
:1041C0000E94761986E0F40111928A95E9F75ECF94
:1041D000F80121819213C5CF90819813C2CFC110ED
:1041E000C0CFF582C8010E94761986E0F4011192D1
:1041F0008A95E9F7DDCF483C510520F7CC2031F115
:104200002181921317C09081981314C08091F302FA
:1042100080FD9ECF803108F49BCF8583807F803FD7
:1042200009F493CF8581982F907F905F8F70892BB1
:1042300085838BCFF801808191810E94440F811189
:10424000ADCF8091F30281608093F302C8010E9498
:104250007619AECFCC20D1F3F801808191810E94F4
:10426000440F882399F39ACFA7E1B0E0EAE3F1E2A3
:104270000C94EE2A4B8B5C8B162F6D8B7E8B8F8B69
:1042800061111092B6021A8A85E0FE017396DE0172
:104290001D9601900D928A95E1F78091F50282FFBB
:1042A0001FC00E947C0A2091B8023091B902821B83
:1042B000930B8838934138F08091B70282FD03C098
:1042C00082E00E94D6170E947C0A2091BA023091A7
:1042D000BB02821B930B8838934110F00E945A084E
:1042E0001F8786E0FE013D96DE01179601900D9234
:1042F0008A95E1F7CE0107960E94F71F811113C03E
:1043000086E0FE013796DE01119601900D928A95A6
:10431000E1F78F8198852091BC024091BD026A85AA
:104320007B85672B59F416E08091BD029091BC0209
:10433000891331C06796E3E00C940A2B89238F3FE1
:1043400091F330E0C90101968770992750E08417F6
:10435000950771F40E9480111092BC021092BD0268
:1043600086E0EEEEF2E0DF011D928A95E9F7DBCF01
:1043700096E0929FD001939FB00D1124A254BD4F9F
:10438000FE01319601900D929A95E1F78093BC025F
:104390000E943B08C8CF189FC001112482549D4F32
:1043A0000E94F71F882331F28091BD0290E00196B0
:1043B000877099278093BD02B7CFA5E0B0E0E3EE08
:1043C000F1E20C94ED2A8C0190938F0180938E0181
:1043D000011580E21807B0F4C801805E91090897C2
:1043E00028F06EE571E10115110511F462EF70E13D
:1043F000C8010E94A807802F0E94B10F2596E4E013
:104400000C94092B80EF89838A8381E08B830E943F
:104410007C0A8160782F49815A816B81892F0E94A3
:104420003421ECCFA5E0B0E0E8E1F2E20C94ED2A13
:104430008C0190938F0180938E01011580E2180703
:10444000B0F4802F0E94FC0FC801805E910908978C
:1044500028F068E671E10115110511F46CEF70E1C7
:10446000C8010E94A8072596E4E00C94092B80EF70
:1044700089838A831B820E947C0A8160782F49810C
:104480005A816B81892F0E943421EDCFCF93DF9326
:10449000D82FC92F0E94DD218D2F9C2F0E94122220
:1044A000DF91CF9108950F931F93CF93DF938C01EA
:1044B000862F63EF71E00E946119892BB1F4C091DE
:1044C000F301D091F401209781F0F80180818330CD
:1044D00051F4CE010E944622CE010E944622CE0116
:1044E0000E94462202C08430D0F7DF91CF911F9105
:1044F0000F9108950F931F93CF93DF938C01EB01DE
:1045000063EF71E08C2F0E946119892B09F060C064
:10451000FE01FF27D8018C91EA57FE4F8130D1F47C
:1045200019968C911997811158C01A968C918823ED
:1045300009F453C082E080838091F5019091F601E7
:104540000097D9F48091F3019091F401009709F458
:104550003FC013C08230D1F519968C911997811103
:104560002AC01A968C9181110BC083E080838091C0
:10457000F7019091F801009701F10E94DD2128C018
:1045800084E080838091F9019091FA010097A9F766
:104590008091F3019091F401009711F10E9446225D
:1045A0008091F5019091F601009739F78091F30120
:1045B0009091F401E2CF85E080838091F3019091A6
:1045C000F401009729F00E944622F0CF86E0808314
:1045D000DF91CF911F910F91089581E08083B2CF39
:1045E0008091F5019091F601B1CF0F931F93CF9376
:1045F000DF938C01EB0163EF71E08C2F0E94611956
:10460000892B71F4DD27CA57DE4F8881F8011082AB
:1046100018828330F1F048F4813059F0823081F013
:10462000DF91CF911F910F9108958430B9F08530BB
:10463000B9F78091F3019091F401009789F306C0D6
:104640008091F5019091F601009799F30E94122252
:10465000E7CF8091F7019091F801F6CF8091F901B1
:104660009091FA01009791F72091F3013091F401B4
:104670008091F5019091F60121153105F1F2009735
:1046800029F7C901E3CFAAE0B0E0E9E4F3E20C9432
:10469000E52A0FEF11E0E12CF12C83E5C82E82E230
:1046A000D82E9AE7A92E92E2B92E25EF822E22E289
:1046B000922EF801D182C082B382A2829582848236
:1046C000F58AE48ABE016F5F7F4F8E2D0E946119CB
:1046D000892B29F489859A85F801938B828BFFEFCA
:1046E000EF1AFF0A0A5E1F4F88E0E816F10409F787
:1046F0002A96ECE00C94012B1F920F920FB60F92AA
:1047000011242F933F934F935F936F937F938F93D6
:104710009F93AF93BF93EF93FF930E947C0C909174
:10472000F702209111013091120121153048D1F585
:104730009093F60220911101309112013695279540
:104740003093120120931101882349F080911101C7
:104750009091120190689093120180931101209121
:10476000110130911201C9019927203A09F402C1BF
:10477000813A910508F056C08034910509F4B4C01F
:1047800040F5409781F12F7D3327232B09F4ACC0EE
:10479000809111019091120190930B0380930A0371
:1047A00080E80EC02091F602921B933018F280919F
:1047B00011019091120190930B0380930A0380E200
:1047C00080930D0380E090E8909312018093110193
:1047D0008BC08038910509F487C08039910519F0A4
:1047E00080359105A9F68091110190911201909365
:1047F0000B0380930A03809111019091120197FF9E
:10480000C4C080E18093090380911101909112014D
:1048100026E0969587952A95E1F79093120180936B
:1048200011012FC0803D9105F1F2803E910509F400
:104830006CC0803C910509F0ABCF84E605C095E0E3
:104840009A95F1F700008150499902C08111F7CF84
:10485000499B47C081113FC0809111019091120185
:1048600090930B0380930A038091110190911201A0
:10487000892F9927909312018093110182E28093EE
:10488000090380911101909112019091FD02E09134
:10489000FB02F091FC02E90FF11D80832091FF02E1
:1048A0008091FD028F5F82238093FD0290E001964C
:1048B00030E0822393232091FE02422F50E08417A0
:1048C000950719F4E9985998519A8091FD0282133D
:1048D00079CF80E475CF45E04A95F1F7000081502B
:1048E000B7CF882309F4B8CFFF91EF91BF91AF9173
:1048F0009F918F917F916F915F914F913F912F91F8
:104900000F900FBE0F901F901895809111019091FC
:10491000120190930B0380930A03809111019091EF
:104920001201892F9927909312018093110183E23C
:10493000A6CF95E09A95F1F700008150499902C001
:104940008111F7CF499B1EC0811116C080911101C2
:104950009091120190930B0380930A0380911101AF
:1049600090911201892F9927909312018093110140
:1049700081E285CF84E6E2CF45E04A95F1F7000079
:104980008150E0CF8111B0CFE1CF81E13BCFCDB7F6
:10499000DEB7AE970FB6F894DEBF0FBECDBF85B7BA
:1049A000806885BF85B7806885BF84B7877F84BFEF
:1049B0000FB6F894A895809160008861809360009C
:1049C000109260000FBE80E890E00FB6F8948093DC
:1049D0006100909361000FBE87E29AE090935F01BF
:1049E00080935E010E9443230E94560B0E94170C85
:1049F0008091E20084608093E20078948091B80115
:104A0000882399F08091E9001091EC001795112707
:104A100017958F70182B1092E9008091E80083FDA4
:104A20000E94D5141F701093E90082E084BD93E0CA
:104A300095BD9AEF97BD80936E000E94850E8111FF
:104A400002C00E94E6188091A20181608093A201B9
:104A5000EEE0F3E080E1DF011D928A95E9F72E9800
:104A600026982F9827980E945707809169008860A0
:104A700080936900E99880E991E09093FC0280932B
:104A8000FB021092FD021092FE028FE08093FF0263
:104A90000E945C0780E090E00E944B2B883E9E4F76
:104AA00021F40E94850E811102C00E94F61882E056
:104AB00090E00E94432B8093A2010E94770E909376
:104AC000F5028093F4020E948C11EFEFF6E721E0EB
:104AD000E150F0402040E1F700C000000E948C113E
:104AE00080910E0380FF08C06FEF7FEF80E090E0C1
:104AF0000E946F2B0E94970A83E090E00E94432B54
:104B00000E94991781E091E09093BA018093B901D6
:104B1000F8E16F2E712CA0E44A2EBEE1AB2EB3E07B
:104B2000BB2E10E1512E8091B801853059F480914F
:104B3000B801853009F44FC00E9480110E94290AF3
:104B40000E94A80D0E948C11882359F08FB7F89409
:104B50004091F7025091F8026091F9027091FA02C7
:104B60008FBFEEE0CE2EE3E0DE2EA3EAB1E0F60149
:104B700000E010E0219131918D919D918217930772
:104B8000A1F0822793277C0141E0E422FF2460E02A
:104B9000E114F10409F075C0EE24E394F12C6F5F89
:104BA000EE0CFF1C603109F066C00F5F1F4F08302C
:104BB000110501F78FEF89838A831B820E947C0A8B
:104BC0008160782F9D838C8349815A816B81892FE5
:104BD0000E94342176C08091B801843021F180E0B8
:104BE0000E94A80D1092A0010FB6F894A8956092AB
:104BF00060000FBE4092600083B7817F846083BFF6
:104C000083B7816083BF7894889583B78E7F83BF95
:104C10000FB6F894A8958091600088618093600039
:104C2000109260000FBE8091A101882309F47FCF0C
:104C30000E948C11EEE0F3E081919191892B21F497
:104C4000AE16BF06C9F773CF59BC82E189BD09B45E
:104C500000FEFDCF8091D8008F7D8093D800809199
:104C6000E00082608093E0008091E00081FDFCCF55
:104C70000E9480115CCFAC014E215F21452B09F4CD
:104C80008ECF69830A832E213F2181E0232B09F4F3
:104C900080E08B830E947C0A8160782F9D838C83C7
:104CA00049815A816B81892F0E943421000F111F85
:104CB000F801ED55FE4F808191818E259F259183CE
:104CC000808380910F0190911001312C46E1242EB8
:104CD000019609F04EC00E94290A9091B3018917EC
:104CE00021F08093B3010E94A80D8091B801843017
:104CF00009F019CF83E08093E9008091E80082FFFA
:104D000012CF8091E80085FD3EC08091E8008B774E
:104D10008093E80008CF289EF001299EF00D112411
:104D2000E150FE4F028913890115110511F408ECB9
:104D300010E0289E4001299E900C1124C40181504E
:104D40009E4F7C01DC0116968C911697882381F08A
:104D50001D968D919C910E94880A0817190740F4AE
:104D6000C7010E942018C4018B5F9D4F0E9442180A
:104D70003394832D90E020910F013091100128177A
:104D800039074CF6A8CF0E94250B30E2E32EF12C18
:104D90008E010F5F1F4F882361F18091E8008B77B0
:104DA0008093E8000091B6011091B701E9810115E7
:104DB000110569F1EE3F09F05FC08A81833020F070
:104DC0008550833008F058C0EA81EE3008F054C0B6
:104DD000F0E0EB51F34D0C94D22A8091F100F801F0
:104DE0008083F1E0EF1AF108E114F104B1F20F5FF2
:104DF0001F4F8091E80085FDF0CF8091E8008B7710
:104E00008093E8000E94250B882399F3C6CFE431F4
:104E100050F4EE2351F0E150E33138F4F0E0ED507E
:104E2000F34D0C94D22AEE3F79F28FEF898324C0A0
:104E30001A8289E08B8320C08A81823011F183300D
:104E400049F1813091F78FB7F8942091F7023091B2
:104E5000F8024091F9025091FA022BA73CA74DA706
:104E60005EA78FBF6BA57CA58DA59EA50E94D82AA5
:104E70006B837C838D839E83CE0101960E94A30B5E
:104E800052CE86E290E00E94432B1B821C821D8240
:104E90008E83F2CF80910D0190910E01892B61F3E9
:104EA000FE013196D6018C9111969C91B2E0CB0E09
:104EB000D11C9283838332962EE1C21623E0D20660
:104EC00089F7DACF8A81823009F0AFCF8B819C815C
:104ED000AD81BE818BA79CA7ADA7BEA7BC01CD01AC
:104EE0000E94D82A86E290E00E94512BC5CF4C81C7
:104EF0006B818A810E949E0E9827892798279E831E
:104F00008D83BACF2D813E813227232732274C81D2
:104F10006B818A810E94400EAFCF0E948918ACCF6E
:104F200080E18A83A9CF81E08A8389E883CF8C815D
:104F3000082F10E08D3108F09FCFCA80DB80DC2481
:104F4000CD24DC240C0D1D1D7E0195E0E90EF11C25
:104F5000C016D10609F490CF80E0A9E8CA16A1E0F6
:104F6000DA0628F4C60189589D4F0E94432BF701A9
:104F700081937F01FFEFCF1ADF0AEACF80910D0105
:104F800090910E01892B09F477CF8C81E82EF12CBA
:104F90008D3108F071CF0A811B811027012710275E
:104FA0009E012F5F3F4F6901E20EF31EEC14FD04DA
:104FB00009F462CF093831E0130740F4D6011496A2
:104FC0006C91C80189589D4F0E94512B0F5F1F4F54
:104FD000BFEFCB1ADB0AEACF0E94670E4DCF82E00B
:104FE000A0CF8C81082F10E08D3108F045CFCA800A
:104FF000DB80DC24CD24DC240C0D1D1D7E01E5E0CE
:10500000EE0EF11CC016D10609F436CF80E0C114B3
:10501000F2E0DF0620F4C60187960E94432BD701F9
:105020008D937D01BFEFCB1ADB0AECCF8C81E82E8C
:10503000F12C8D3108F020CF0A811B811027012728
:1050400010270115E2E01E0708F016CF80E092E07D
:10505000801B910B8E159F0508F40ECF9E012F5FCC
:105060003F4F6901E20EF31ECE14DF0409F404CFB2
:10507000011532E0130738F4D60114966C91C8017B
:1050800087960E94512B0F5F1F4FBFEFCB1ADB0A91
:10509000EBCF80910D0190910E01892B09F4ECCE9C
:1050A000CE0101960E94A30BEFEFF1EE24E0E15058
:1050B000F0402040E1F700C000001CCD88E0E7E1AF
:1050C000F1E0DE01919601900D928A95E1F7FE01E3
:1050D00032968FE1DF011D928A95E9F785E0898399
:1050E00088E07F96DE01159601900D928A95E1F792
:1050F000C3CE8CEF898384E08A831B821C82BCCE62
:105100008B819C81092E000CAA0BBB0B25E0880F1C
:10511000991FAA1FBB1F2A95D1F7AC01BD01405EA4
:105120005F4F6F4F7F4F803EEFEF9E07AE07BE078A
:1051300008F0A2CE8C3FF4E09F07A105B10508F06E
:105140009BCE4D3F24E052076105710520F04CEFE6
:1051500054E060E070E0481B590BBC01655E7B4F7A
:10516000CE0101960E94162B87CE4EE150E06FEFE4
:1051700070E0CE0103960E942C2B80910D01898353
:105180000A837ACE81E090E09093B7018093B601D4
:1051900082E390E09093B5018093B4010E947C0A71
:1051A0006BCE80910D0189830A838091B40142CE38
:1051B00040E250E06FEF70E0CE0101960E942C2B90
:1051C0005BCE8B81813069F0823011F1811154CE38
:1051D000FE0132968FE1DF011D928A95E9F788E0A2
:1051E00025CE8C819AE0F92E8E010F5D1F4FF801BC
:1051F0002F2D11922A95E9F7B8010E946119898330
:10520000F801DE01129601900D92FA94E1F734CE86
:105210006C818AE0FE013596DE01919601900D9237
:105220008A95E1F789A19AA181153CE5930741F49C
:1052300020910D0130910E01232B11F480E090E0BC
:105240009AA389A38BA19CA181154CE5940741F4F5
:1052500020910D0130910E01232B11F480E090E09C
:105260009CA38BA38DA19EA181155CE5950741F4BC
:1052700020910D0130910E01232B11F480E090E07C
:105280009EA38DA38FA198A58115ACE59A0741F443
:1052900020910D0130910E01232B11F480E090E05C
:1052A00098A78FA38FEF683068F4BAE06B9FB001C6
:1052B0001124695D7D4F4AE050E0CE0181960E9445
:1052C000752B80E089830E944323D6CD1F921FB6A1
:1052D0001F9211248F939F93AF93BF938091A0014E
:1052E000811113C08091F7029091F802A091F90208
:1052F000B091FA024196A11DB11D8093F7029093DF
:10530000F802A093F902B093FA02BF91AF919F9176
:105310008F911F901FBE1F90189578941F921FB6F3
:105320001F9211248F939F93AF93BF938091F702A5
:105330009091F802A091F902B091FA020196A11D94
:10534000B11D8093F7029093F802A093F902B093F5
:10535000FA02BF91AF919F918F911F901FBE1F9036
:1053600018951F920F920FB60F9211242F933F930F
:105370004F935F936F937F938F939F93AF93BF935D
:10538000EF93FF938091E10082FF09C08091E200DA
:1053900082FF05C08091E1008B7F8093E1008091C6
:1053A000DA0080FF24C08091D80080FF20C0809167
:1053B000DA008E7F8093DA008091D90080FF9BC055
:1053C00080E189BD82E189BD09B400FEFDCF81E0A5
:1053D0008093B80180916D01811109C00E94560B24
:1053E0000E94170C8091E20084608093E20080911B
:1053F000E10080FF17C08091E20080FF13C0809120
:10540000E2008E7F8093E2008091E20080618093D1
:10541000E2008091D80080628093D80019BC85E0BA
:105420008093B8018091E10084FF29C08091E2005F
:1054300084FF25C080E189BD82E189BD09B400FEF9
:10544000FDCF8091D8008F7D8093D8008091E100BE
:105450008F7E8093E1008091E2008F7E8093E20056
:105460008091E20081608093E20080916C0188234A
:1054700009F447C084E08093B8018091B80180911D
:10548000E10083FF27C08091E20083FF23C0809169
:10549000E100877F8093E10082E08093B801109261
:1054A0006C018091E1008E7F8093E1008091E200A9
:1054B0008E7F8093E2008091E20080618093E20021
:1054C00042E060E080E00E94E00B8091F0008860A4
:1054D0008093F000FF91EF91BF91AF919F918F91D9
:1054E0007F916F915F914F913F912F910F900FBEE0
:1054F0000F901F90189519BC1092B80110926D0171
:1055000076CF8091E30087FF02C083E0B4CF81E0D3
:10551000B2CF1F920F920FB60F921124FF920F93EA
:105520001F932F933F934F935F936F937F938F932B
:105530009F93AF93BF93CF93DF93EF93FF9309EEC6
:1055400010E0F8018081C091EC00C795CC27C79589
:105550008F70FC2EF82A1082C0EFD0E08881877F00
:10556000888378940E94D514F8011082888188601D
:105570008883CF2DCF70C083FF91EF91DF91CF91C2
:10558000BF91AF919F918F917F916F915F914F915B
:105590003F912F911F910F91FF900F900FBE0F9091
:1055A0001F901895EE0FFF1F0590F491E02D0994C0
:1055B00069279627692778278727782708952F92C4
:1055C0003F924F925F926F927F928F929F92AF9293
:1055D000BF92CF92DF92EF92FF920F931F93CF93E0
:1055E000DF93CDB7DEB7CA1BDB0B0FB6F894DEBF77
:1055F0000FBECDBF09942A88398848885F846E849D
:105600007D848C849B84AA84B984C884DF80EE80E6
:10561000FD800C811B81AA81B981CE0FD11D0FB6EF
:10562000F894DEBF0FBECDBFED010895FB01DC0194
:1056300002C005900D9241505040D8F70895FB01EB
:10564000DC0104C08D910190801921F4415050403B
:10565000C8F7881B990B0895DC0101C06D93415078
:105660005040E0F70895DC01CB01FC01F999FECF31
:1056700006C0F2BDE1BDF89A319600B40D924150DA
:105680005040B8F70895F999FECF92BD81BDF89AC0
:10569000992780B50895A8E1B0E042E050E00C946D
:1056A000352B262FF999FECF92BD81BDF89A01972F
:1056B00000B4021639F01FBA20BD0FB6F894FA9A5A
:1056C000F99A0FBE08950396272F0E94522B0E942D
:1056D000512B252F0E94522B242F0C94522B0196D4
:1056E000272F0E94522B0C94512BDC01CB0103C0BD
:1056F0002D910E94802B41505040D0F70895262FC5
:10570000F999FECF1FBA92BD81BD20BD0FB6F894A6
:10571000FA9AF99A0FBE01960895F894FFCF5506AC
:1057200063067006700647067006700670067006FF
:1057300070067006700670067006700670067006B9
:105740007006490670064B067006700670067006F5
:10575000670670066F0665067006700670067006AE
:105760007006700670067006700670067006700689
:1057700070063F065B064D065F0670064F06700614
:10578000530670065D0651066106570659067006F7
:1057900070067006700670067006700641064306B5
:1057A000450669066B067006700670066D06BE0635
:1057B000BA06D006D006D006D006D006D006C0065F
:1057C000BC067B06D006D006BA067D06D006D006FB
:1057D0007B06BE06D006D006BC06D006D006D00694
:1057E000D006D006D006D206BE06B406D006B8064D
:1057F000D006D006D0069406C006D006D006C8064D
:10580000D006D006D0069606C206D006B606D0064A
:10581000BA06D006D006CC06C406D006C606BC061C
:10582000D006D006D006CA06D5068806D006D00611
:10583000D006D006D006D006D506D0069806D006EB
:10584000D006C006D006D006C206D006D006D006C6
:10585000D006D006D006D006D006D0069A06D006CE
:10586000D006D006C806D006D006D006D006D00690
:10587000D006D006D006D006D0069C06D0069E06DE
:10588000A006D006D006D006A206A406A606D0061C
:10589000A806AA06D006AC06D006CE06AE06D006EE
:1058A000B206B006AC06D006D006D006D006C206B8
:1058B00044074D074D074D074D0746074D074D0758
:1058C0004D074D074D074D074D072A0724074D0784
:1058D00026074D074D074D074D074D07280722079F
:1058E0004D074D074D074D074D074D074D074D0718
:1058F00042074D074D074D074D0748074D074D0718
:105900004D074D074D074D074D072C073A073C073C
:105910002E07300732073407360738074C071C07B5
:105920001E0720073E074007D211EB11FC1106129B
:10593000151220122F123C125512681211131A134D
:10594000BA148E13E013BB13FC131F1428142D1468
:1059500032143714A714A914AB14AD14AF14B71430
:10596000B714B714B114B314B5148D148F14911463
:10597000931495149D149D149D14971499149B14BD
:10598000B315D915DF15D915DF1532165416DF15E5
:105990005A1767179C1CA01CA41CB21CB61CBA1C6E
:1059A000BE1CC41CCC1CD01CD41CD81CE41CE81C81
:1059B000EC1CF01CF61C141DFE1CAE1CDC1CE01CB8
:1059C000C81CFA1C0A1D1D1D231D5E28792880286D
:1059D0003C273C27B528C228D1283C27D8283C277B
:1059E0003C273C27E12818271C2762277727822796
:1059F0008D27152715271527152749289027932721
:0C5A00009727BE27EC27EF27F127162878
:105A0C0001A80ABF0DAB0A1A0E1F0EAC0A0100FF4B
:105A1C00FF008000000000517385911BC7667B005E
:105A2C004022320001DE00AC0052016B018B01E21E
:105A3C0000E900EA00B500B600B700CD008301CC48
:105A4C00008A0192019401210223022402250226DC
:0E5A5C000227022A02B300B4006F007000009F
:00000001FF
