:100000000C94D5050C94F2050C9403290C94F2057C
:100010000C94F2050C94F2050C94F2050C94F20584
:100020000C94F2050C94F2050C944C300C9438317D
:100030000C9401300C94F2050C94F2050C94F2052A
:100040000C94F2050C94F2050C94F2050C94F20554
:100050000C94F2050C9428300C94F2050C94F205E3
:100060000C94F2050C94F2050C94F2050C94F20534
:100070000C94F2050C94F2050C94F2050C94F20524
:100080000C94F2050C94F2050C94F2050C94F20514
:100090000C94F2050C94F2050C94F2050C94F20504
:1000A0000C94F2050C94F2050C94F20505010980FC
:1000B000A101850319012AB700150126B700950192
:1000C00075108100C0050C0901A101850419012AE0
:1000D000A002150126A002950175108100C00660DE
:1000E000FF0961A1010962150026FF00952075082E
:1000F00081020963150026FF00952075089102C052
:1001000005010906A101050719E029E715002501E8
:10011000950875018102950175088101050719008F
:1001200029FF150026FF00950675088100050819AE
:10013000012905950575019102950175039101C08D
:1001400009025B00030100A0FA0904000001030199
:100150000100092111010001224000070581030867
:10016000000109040100020300000009211101003F
:100170000122220007058203200001070503032056
:10018000000109040200010300000009211101001F
:100190000122320007058403200001120100020041
:1001A000000008EDFE36650101010203011C037623
:1001B00000690061006C003A00660036003400639C
:1001C0000032006200330063000000120349004265
:1001D000004D0020004D00310032003200000008C8
:1001E0000351004D004B000000040309048800AADD
:1001F00000A900A800040005000600070008000987
:10020000000A000B000C000D000E000F0010001182
:100210000012001300140015001600170018001932
:10022000001A001B001C001D001E001F00200021E2
:100230000022002300240025002600270028002992
:10024000002A002B002C002D002E002F0030003142
:1002500000320033003400350036003700380039F2
:10026000003A003B003C003D003E003F00400041A2
:100270000042004300440045004600470048004952
:10028000004A004B004C004D004E004F0050005102
:1002900000520053005400550056005700580059B2
:1002A000005A005B005C005D005E005F0060006162
:1002B00000620063006400654185006700680069B2
:1002C000006A006B006C006D006E006F00700071C2
:1002D0000072007300890087008A008B00E000E153
:1002E00000E200E300E400E500E600E700010001B1
:1002F0000001000100AA0001000100A800010001A6
:100300000001000100460001004A004B000100010D
:10031000004700480001000100A9000100010001A0
:100320000001000100010001003A003B003C003DDB
:10033000003E003F00400041004200430001003504
:10034000004C003900010044004500520049000102
:1003500000010050004F0029004D004E00510001E7
:100360000001000100010001000100010001000185
:100370000001000100010001000100010001000175
:1003800000010001000100010001004D004A004E83
:10039000004B00010001000100010001000100010B
:1003A0000001000100010001000100010001000145
:1003B0000001000100010001000100010001000135
:1003C0000001000100010001000100010001000125
:1003D00000010001004900010001000100010001CD
:1003E0000001000100010001000100010001000105
:1003F000008102D328E9280000020002007D02D318
:1004000028E9280000030001008202D328E928001F
:1004100000040002006702D328E928770A050001DA
:10042000008302D328E9280000060002006902D3F5
:1004300028E9280000070002007F02D328E92800ED
:1004400000080001008402D328E9280000120002FD
:10045000008502D328E9280000130002008702D398
:1004600028E9280000140001008902D328E92800A7
:1004700000150000000000800A00170000FD377A18
:10048000585A000004E6D6B44602002101160000C6
:1004900000742FE5A3E0277C04B95D003D888986C0
:1004A000D3DC0AE842C324925842588FD8E75CA0B4
:1004B000D2616E26E888019A676C7887BC8D37090F
:1004C000EA511D70D2DBC0939A2FC80D59B8282E5F
:1004D000D15B121C51A8974F325CCDE72F59AB6E00
:1004E000C4EBBDD28A6DAAB94E09DF53EA7065FD2F
:1004F0006BA067E07D66808F25E6716640010C8405
:100500007A278D2FC4CBED530796F883DA029A50E1
:100510006BD0CE0643247B67F8696513F41500F2AF
:10052000AD02D9E6C09FF561AF9B47E9D457E9C159
:1005300010D6F30A4BC44EBE0272F2F26847DEE5F3
:10054000E367C0A51DDB8E8C6E31A4A0C928E4D55D
:100550004E9CE220AFCE25FF0FA9C5CE0C376961B6
:100560005493E1021EBDCD9115AF2747D3BB7D92B9
:100570000BC069EF367BB32D8569B9D1443C8D56EC
:100580000446AFE5214475DC5808CEB0F5599AF819
:10059000BDC12CAABEE1F05D7BB2010AA3B3D3B703
:1005A000F47CCAFF665BB19786C7ADE2E0B074D752
:1005B000839A725CC246205A65205FDC064B76FF48
:1005C0006FB42691ACFB0BC7E8E580FDE2837704AE
:1005D000DA4B88DC47DE5709579B7DE12648F5EE6C
:1005E000EEC280F0FA005F163A4401FE57EB58FA6B
:1005F000D34262734C5446016E6D2616D8D4FD2743
:1006000018399F205EAEE358275DC2B6C6E3A3D477
:10061000F4566B4D03E7D9286387D34EC7A8998258
:100620001FBAF50D57A808D4D1C2E72557077C1A81
:100630009C296B49A21F0B0475D2BB89D206050AFF
:100640008522715F82F502DB7231089992B7406AA8
:100650000E0105AB810BC2B078CB32F3A9CD11FAF4
:10066000FBA4DAD79F610F0893883B9FDF7D76FA62
:10067000D59DE55A2BB7920BF9650C9FD64CD64504
:1006800070A3E1ECB14F5F866D796D6DEAACF5C09A
:10069000A6660CACAEA1BA44D697A5AE54768A69CC
:1006A000A1EA21AF390CE42EDF2586EE6311A6A165
:1006B0003DF6D7A5F7A59201BE9738129C573B0887
:1006C0005FE195A52BF8C6863713CAEAE93E0E5FAF
:1006D0009A6BB6CB22235BCE260B87452DFF826516
:1006E0000A0B573B9ED080A50C16484CB7E87825DE
:1006F00098343AB2A4E982DD8303B7FBAB29545D99
:10070000DC4DFCDBD67126ADE299AFFBFDC36EDD9F
:10071000D618D514AA38EC4EE22366CC7D05B18BF1
:100720002DAB107302674C6925AA053348A52273C7
:1007300052B9E26C596F0CC32190E6DD2899C24C86
:100740001C2EDBB25631A3A354D299B59C5416DAB1
:100750005134499CAD99C6CB8483A58E78C47B6304
:100760002F76EE436122AC7F760F874CC8BBF08AB0
:10077000E337318DC2B10570B12E2CA6057EC303BF
:10078000DE96F12C4D191765C8302A50A10AD750B2
:100790005115E927E39D38C15F58753F7A5724A367
:1007A000FEB098452409DBF9C1781CAA49C3E4EBE3
:1007B000CFFE7AB97B388E5C029442C9D841F94C9D
:1007C00032481301BD7C0DE1FA11111C836A2EC55C
:1007D0005A90444C15A6DF6B6F0B08F0CB6C7DE78D
:1007E000FE013C4FAD80B796D9D3BBA588695C5854
:1007F0006890662DAC00BF51206AFF47E74ABA4FA8
:100800009D6780794F6960448B60B720583D816057
:1008100031ED997FCEBD8A89525B22CFAFEEA8061B
:10082000AE8A7C772EA293839AB6F4022C5146C1ED
:10083000CA468B33F9ED7D527C9A2AC385B8D944D8
:100840001F33F344830D591DCAF109468EF2E4CBE0
:100850005DB0147673E61E1434183189FEB0D9E603
:1008600075E4A62658C459E0FDE4C4E0CD6C68F5F3
:100870004F4BEFB5DCF206CAF1A9D35BCB1317617E
:100880006D1476CEFA47973375A52A353678D42875
:100890005CF22183B4129D8B64803C677B97330BA1
:1008A000806C0F46795A55F6A3E3B7E24EEB96FCFF
:1008B000ED388BE4A7F34E3A449E7C9193140F9548
:1008C000038975166E0859458C9408ED149B788A37
:1008D00063209E359DB4D8DB9F18B485FBC20BC145
:1008E0004A81E7823E2579E4FF29F6A442A927142C
:1008F0001D761ED6F6F79FC01682A33F411E407A92
:10090000C67EAB132BF856ECBB208CB5DAEC9B8B78
:10091000A9E19E13C9F5130B7A47B3CF7449EE09C9
:1009200004C1407F524788DC20B8D74CC41A01DD8F
:10093000DCD71E389552B99B095B208D689D7309E1
:100940007F64A13D82317E6100634FDEA343C3ED2E
:1009500010EEF2C32A00000000977C1F861C225B69
:10096000090001D509FD4E00008055BE82B1C46763
:10097000FB020000000004595A00000000000000C3
:100980000000000000000000000000000000000067
:10099000000000000000000000000000007E0F00CA
:1009A000D4FFFFFFC7000000780000000000000037
:1009B000002A2B28000000000000000000000000BA
:1009C0000000000029000000002C1E3420212224F9
:1009D000342627252E362D3738271E1F2021222387
:1009E0002425263333362E37381F04050607080919
:1009F0000A0B0C0D0E0F10111213141516171819DF
:100A00001A1B1C1D2F3130232D350405060708093C
:100A10000A0B0C0D0E0F10111213141516171819BE
:100A20001A1B1C1D2F3130354C007B46010203760A
:100A30003A687F6577482B353B6978796439141EAD
:100A40003C6A7A1D16041A1F3D6B061B07082120FD
:100A50003E6C2C19091715223F6D11050B0A1C233A
:100A6000406E7E100D182425416F360E0C1227267D
:100A7000427037380F33132D43717534322F2E44A3
:100A8000727C7D28303174457351504A524D492A49
:100A90005466594F5C5F4C4B4E62635A5D5E6029F1
:100AA0005367585B56576147554842403E3C3A3B76
:100AB000456843413F3D2B357E697A790078141EA5
:100AC0007B6A7C1D16041A1F7F6B061B07082120FA
:100AD000656C2C19091715224A6D11050B0A1C2388
:100AE0004C6E49100D182425516F360E0C12272616
:100AF0004F7037380F33132D52717534502F2E4EDF
:100B000072397D28304D314B735464586776012A11
:100B1000773259745C5F66020362635A5D5E6029D6
:100B20005344575B565561474680291E1F2021229A
:100B300023242526272D2E2A2B141A0815171C18B6
:100B40000C12132F302878041607090A0B0D0E0F0C
:100B500033343579311D1B06190511103637387DB0
:100B6000557A2C393A3B3C3D3E3F40414243534746
:100B70005F6061565C5D5E57595A5B6263464864CC
:100B80004445677B7F650301025250514F68696A93
:100B90006B6C6D6E6F7071725800494C754A4D7375
:100BA0004B4E767C777E7466540011241FBECFEFC7
:100BB000DAE0DEBFCDBF11E0A0E0B1E0E4E7F7E6A8
:100BC00002C005900D92AE35B107D9F722E0AEE52F
:100BD000B1E001C01D92A83BB207E1F70E944E2A86
:100BE0000C9433320C940000E8EAF2E080E1DF017B
:100BF0001D928A95E9F70895E82FE295E7708F70C6
:100C00009091A102923071F09330A9F09130E1F40B
:100C100090E1E99FF0011124E80FF11DE75DF44F29
:100C20008491089590E1E99FF0011124E80FF11DEE
:100C3000E755F54FF5CF90E1E99FF0011124E80F5A
:100C4000F11DE75DF54FECCF80E808950E94FC05AB
:100C5000E82FE295E770F0E0EE0FFF1FE855FD4F3B
:100C6000208131818F7041E050E0BA0102C0660FEF
:100C7000771F8A95E2F7A90146235723452B21F4D4
:100C8000262B372B3183208308950E94FC05E82F03
:100C9000E295E770F0E0EE0FFF1FE855FD4F408151
:100CA00051818F7021E030E0B90102C0660F771FDB
:100CB0008A95E2F7CB019B0124233523232B31F0C6
:100CC0008095909584239523918380830895E4EE05
:100CD000E80FE834B0F5F0E0EB5CFD4C0C948131AA
:100CE00085E508958AE508958BE508958CE50895D6
:100CF0008DE508958EE508958FE5089580E60895C1
:100D000081E6089582E6089583E608958FE60895C2
:100D100081E7089582E7089584E7089585E70895B7
:100D200087E7089588E708958AE708958CE708958E
:100D30008FE7089580E7089589E708958BE7089580
:100D400084E50895EDEFE80FE13808F05AC0F0E0CF
:100D5000E358FD4C0C94813189E1089580919F0204
:100D60009091A00280599B4A029708F04EC083E1FF
:100D7000089520919F023091A00220593B4A2230D1
:100D8000310508F043C08CE708958FE1089587E2AC
:100D9000089580E6089582E608958CE5089583E538
:100DA00008958FE2089589E3089587E308958FE316
:100DB000089587E408958FE4089580E0089586E516
:100DC00008958EE508958FE7089585E608958EE6E7
:100DD00008958FE6089588E0089580E1089588E1F8
:100DE000089580E2089588E2089580E3089588E3F5
:100DF000089580E5089587E508958FE508958DE6C7
:100E000008958F77089587E108958FE008958B35D1
:100E1000C1F058F48331B9F028F48E30B1F081314B
:100E2000B1F008958435A9F008958236A1F030F428
:100E300094EA980F923090F48AE608958C3769F01E
:100E400008958DE5089581E1089584E508958FE082
:100E500008958BE508958EE0089587E70895863715
:100E600049F028F4833141F08C3541F008958E37F4
:100E700039F008958EE708958DE5089581E5089588
:100E800086E708958830B9F1E9EAE80FEC33B0F568
:100E9000F0E0E250FD4C0C94813187E608958FE735
:100EA00008958BE7089585E608958DE6089582E616
:100EB000089584E608958EE608958CE7089582E00B
:100EC00008958EE708958CE0089583E0089584E006
:100ED000089585E0089588E0089580E1089581E00F
:100EE000089589E0089588E508958CE5089583E5DF
:100EF000089588E6089586E7089587E7089551984C
:100F0000599A08955898509A08955098589A089563
:100F10005998519A0E9485070895E19AE99A0E948A
:100F20007F070E94850708951092A5021092A402DF
:100F30001092A3021092A70280E090E89093120111
:100F400080931101E5E9F2E0128213820895809105
:100F5000970290E001962091990230E0822393233A
:100F60002091980230E08217930741F40E94940781
:100F7000E19AE99A0E947F070E9485072FB7F894AB
:100F80009091980280919702891781F0E0919502E3
:100F9000F0919602E90FF11D80819F5F30919902D7
:100FA00093239093980290E02FBF08958FEF9FEFC7
:100FB000FBCF9C01FB019A9581159F4120F5D9013A
:100FC000AA27B270832F8170B90166277470A901B6
:100FD0004427587034FF0DC08295807FAB2B09F0F9
:100FE0008062672B09F08064452B09F080680995C1
:100FF0000895AB2B09F08260672B09F08460452BC4
:10100000B1F38860F4CF80E0F2CF282F92959F70E3
:10101000963091F060F4925F9F70923030F481E0EE
:10102000203F79F030F4283E30F080E008959A5F58
:10103000F3CF243FD1F7089581E0283EE0F3213F2C
:10104000F9CF0895983088F5803178F540E1949F84
:1010500090011124280F311D877041E001C0440F19
:101060008A95EAF783E0369527958A95E1F7F901A5
:10107000EE0FFF1FE20FF31FEB51FE4F80E090E0F9
:1010800070E05191DF0111979B01082E02C0369547
:1010900027950A94E2F721702195252724232527F7
:1010A0002C9301968330910561F70895983078F577
:1010B000803168F540E1949F90011124280F311D83
:1010C000982F977083E0369527958A95E1F7F90177
:1010D000EE0FFF1FE20FF31FEB51FE4F40E050E019
:1010E00080E0219130E0092E02C0369527950A94C0
:1010F000E2F721703327042E01C0220F0A94EAF789
:10110000822B4F5F5F4F4330510559F7089580E0C0
:1011100008958091300290912F02981301C0089594
:101120008F5F8770FACFE2E6F1E09191891303C0F7
:10113000DF0111971C9291E0E836F907B1F70895A5
:10114000982F9095809127028923809327020895F4
:1011500080912602882331F0109226021092E40139
:101160001092E301089590918B0292FF06C0282F00
:1011700028712830F9F4877F846093FF06C0282FF8
:1011800028712831F1F4877E846120918C0220FF40
:1011900006C0382F38713830D9F4877F816021FF3D
:1011A00006C0282F28712831D1F4877E816194FDF3
:1011B000877E0895282F24712430F9F68B7F88606C
:1011C000DCCF282F2471243101F78B7E8861DDCF9D
:1011D000382F3171313019F78E7F8860E0CF282F9A
:1011E0002171213121F78E7E8861E1CFCF93DF938A
:1011F000EC01803E910509F475C090F581339105AD
:1012000009F4B9C088F48932910509F4ADC08A3275
:10121000910509F4B7C0019709F475C0CE01049790
:10122000813A9105D0F46FC08933910509F452C019
:101230008238910509F44EC08533910509F48DC0BB
:10124000883A910530F4853A910540F3A497D0642B
:101250005AC08F3B910508F4EBC0C0E0D0E053C00A
:10126000843E910509F45EC0A8F4823E910509F41C
:1012700046C0833E910509F44AC0C11560E4D60713
:1012800008F0E1C0C83ED105F0F1CE019A958F3F3C
:101290009E41C8CF863E910509F44FC0873E910517
:1012A00009F450C0811523E5920708F072C081153A
:1012B00032E5930708F0E7C0811540E59407E8F2AE
:1012C000811551E5950708F4C1C0D82FCC27C16F0F
:1012D000D06A19C080918B0283708823A1F0C0EE80
:1012E000D0E011C080918B0280FDF6C090918C02FD
:1012F00090FF09C0C3EED0E084FDAFCF04C0809161
:101300008B0282FDF7CFCE01DF91CF9108958091BE
:101310008B0282FDE4C090918C0290FDE0CF84FFAF
:10132000F2CF9BCF80918C0281FFEDCF80918B0219
:10133000C7EED0E084FD91CFE6CF80918B0283FD94
:10134000F7CFE1CF80918B0283FDCCC090918C02CE
:1013500091FFE5CFC4EED0E0D6CF80918B0285FF20
:10136000D2CFC9E2D0E0CFCF80918B0285FFCBCF27
:10137000C5E3D0E0C8CF80918B0286FFC4CFCAE21C
:10138000D0E0C1CF80918B0286FFBDCFC1E3D0E01A
:10139000BACF811539E59307A0F5811548E5940783
:1013A00008F087C0811555E59507D0F4811564E5EF
:1013B000960708F079C08695869520E2829FC00145
:1013C0001124C370DD2721E030E0A90102C0440FE1
:1013D000551FCA95E2F7EA01C82BD92BDA6893CFDB
:1013E00095558F3F910511F008F037CF8C2F0E9453
:1013F000B308C82FD0E0DC2FCC27CC27DF71D06218
:1014000082CFC1158AE5D80708F458C0CE0190569E
:101410008115904208F021CF8D2F8F710E94B30863
:1014200090E0982F882788279F718C2BEC01E7CFBD
:10143000C85AD0E0CC0FDD1FC15DDE4F0990D881C6
:10144000C02DD46460CFDF70D06A5DCF9C0174E0A2
:10145000369527957A95E1F7237086958695837062
:1014600030E2839FC0011124922BC37021E030E051
:10147000A90102C0440F551FCA95E2F7EA01C82B23
:10148000D92BDC6840CF8695869550E2859FC001B8
:101490001124C370DD2721E030E0A90102C0440F10
:1014A000551FCA95E2F7EACFD82FCC27C46FD06A70
:1014B0002ACFD82FCC27C06FD06A25CF8C2F8F7022
:1014C0000E94B30834E0D695C7953A95E1F7CF70FE
:1014D0009C2FEC01D06917CFC9E3D0E014CFC2EE46
:1014E000D0E011CFC6EED0E00ECF80E0089580911D
:1014F00067029091680290930E0180930D01089508
:10150000A0E0B0E0E6E8FAE00C949431FB018FEF44
:101510009FEF4430510508F465C040918B0241FBB8
:10152000882780F990E0880F991F42FBAA24A0F831
:10153000B12CAA0CBB1CAA0CBB1C8A299B2940FB02
:10154000882480F8912C8829992943FBCC24C0F861
:10155000D12C53E0CC0CDD1C5A95E1F78C299D2948
:1015600044FBEE24E0F8F12C64E0EE0CFF1C6A95DD
:10157000E1F78E299F2945FB002700F910E075E06F
:10158000000F111F7A95E1F7802B912B46FB222744
:1015900020F9C22F20E0D22FA6E0CC0FDD1FAA95A4
:1015A000E1F78C2B9D2B47FB442740F920E8429F15
:1015B000A0011124842B952B20918C02322F3170A5
:1015C000932B26952170B22FBB0FA0E08A2B9B2B6B
:1015D000092E000CAA0BBB0B80839183A283B383DB
:1015E00080E090E0CDB7DEB7ECE00C94B031AC0118
:1015F00023E0969587952A95E1F78E719927FC014E
:10160000EA57FE4F0190F081E02D4F70552721E001
:1016100030E002C0220F331F4A95E2F7662341F003
:10162000E22BF32B8A579E4FDC01ED93FC93089538
:1016300020953095E223F323F5CF9C01FB01211582
:1016400089E53807C8F4211588E5380708F521151C
:1016500080E5380760F4211580E43807A8F4205E9F
:10166000310981E028303105F0F480E008953155EA
:1016700081E02F3F3105F8CF21158AE53807A8F31F
:1016800030562115304280F481E095819F30ECCFB7
:10169000258122952F7030E04091890250E081E051
:1016A0002417350711F7089581E0FDCF80911502C9
:1016B00080FF06C080911902823011F42C9A08959F
:1016C0002C9808950E94560B249A0895E091D90110
:1016D000F091DA01309729F00190F081E02D099521
:1016E000089580E0089520918401309185012817A4
:1016F000390771F09093850180938401E091D901BD
:10170000F091DA01309721F00680F781E02D0995FC
:10171000089520918201309183012817390771F0D3
:101720009093830180938201E091D901F091DA01D5
:10173000309721F00084F185E02D099508959C01F2
:10174000FC0132968FEF90E04191461751F08F3FA8
:1017500019F4411101C0892F9F5F9630A9F78F3F7F
:1017600009F40895280F311D87FD3A95F901628328
:1017700008952FB7F8948091910290919202A091D0
:101780009302B09194022FBF0895809169029091C5
:101790006A02892B91F00E94B90B2091E3013091EC
:1017A000E401AC01421B530B9A0181E040916902B4
:1017B00050916A022417350708F480E0817008957B
:1017C000CF93C82F80918C0282FF0CC0809126029B
:1017D0008C1741F00E94B90B9093E4018093E301D0
:1017E000C0932602CF9108959C014FB7F894809141
:1017F000910290919202A0919302B09194024FBFF6
:10180000821B930B089587E797E7909301088093D5
:10181000000888E19AE00FB6F894A89580936000DC
:101820000FBE90936000FFCF8091810108950895CD
:101830000895FC019B0180917401909175018617B8
:10184000970740F0672B29F48091E8008E7780930A
:10185000E800C90140E0009741F4411106C08091C1
:10186000E80082FF2FC080E008952091D801222354
:10187000A9F12530A9F12091E80023FD2DC0209188
:10188000E80022FDECCF2091E80020FFE4CF30916A
:10189000F3002091F200009719F02830310558F03C
:1018A00041E02830310509F040E02091E8002E7732
:1018B0002093E800D0CF41914093F10001972F5F32
:1018C0003F4FE9CF8091D801882341F0853041F026
:1018D0008091E80083FFC3CF81E0089582E00895FE
:1018E00083E0089580916E0187FF13C08091E80026
:1018F00082FF06C08091E8008B778093E80004C0E7
:101900008091D8018111F2CF08958091D801882368
:10191000D9F38091E80080FFF8CF8091E8008E77BE
:10192000ECCF2091E4003091E50095E6A90180918B
:10193000EC008170882331F08091E80080FF06C0C0
:1019400080E008952091E80022FD1BC08091D8011D
:10195000882391F0853091F08091EB0085FD10C0D7
:101960002091E4003091E5004217530701F39150B4
:101970009111DCCF84E0089582E0089583E008951A
:1019800081E00895E8EDF0E080818E7F8083109201
:10199000E2001092DA001092E100A0EEB0E08C912B
:1019A00081608C9380818F77808319BCA7EDB0E034
:1019B0008C918E7F8C9380818F7E808310926D01BD
:1019C0000895EF92FF920F931F93CF938C017B01A9
:1019D0000E94910CC82F81110EC08091E80085FDF6
:1019E00011C08091E8008E778093E8000E94910CEE
:1019F000882399F3C82F8C2FCF911F910F91FF90BF
:101A0000EF900895F80180818093F100F1E0EF1AE2
:101A1000F108E114F10479F30F5F1F4FDECFCF938C
:101A20002091D8012430F1F42091E900C091EC001C
:101A3000C795CC27C7952F70C22B22E02093E900D1
:101A40002091E80020FF0BC040E050E060E270E031
:101A50000E94E10C8091E8008E778093E800CF70BF
:101A6000C093E900CF9108958091160282FD06C0CF
:101A70009091CE01911118C082FF04C08091CB01DA
:101A8000811112C081E08093CE018093CB010E942E
:101A9000B90B9093CD018093CC0180918F02882364
:101AA00011F02D9A08952D9808950F931F93CF93B9
:101AB000DF930E94B90B8C010E94A707EC010196ED
:101AC00031F4C8010E94F40B843F9140A8F3CE0189
:101AD000DF91CF911F910F910895982FE42FE2701D
:101AE0009093E900891308C0762F242F50E0E1116C
:101AF00011C091E0980FF4CF7091EC002091ED00AF
:101B00005091F00021FD06C09F5F973049F7809308
:101B1000E90008953091EB003E7F3093EB00309167
:101B2000ED003D7F3093ED003091EB00316030935C
:101B3000EB007093EC002093ED005093F0002091A7
:101B4000EE0027FDE1CF0895A0E0B0E0EAEAFDE075
:101B50000C949831C8EDD0E088818F7E8883E7EDC2
:101B6000F0E080818160808384E082BF81E08093A7
:101B70006D0188818E7F888302EE10E0F80110826B
:101B80001092DA0081EEC82ED12CF60110828881E5
:101B90008F77888388818068888388818F7D888318
:101BA00019BC1092D80110926C011092B9011092D8
:101BB0006B0190EEE92EF12CF70180818B7F808301
:101BC00088818160888342E060E080E00E946D0D42
:101BD000F60180818E7F8083F8018081816080831F
:101BE000808188608083F70180818E7F80838881F7
:101BF00080618883CDB7DEB7E8E00C94B4315198AA
:101C0000599A85E08A95F1F7000089B1869581702F
:101C100008955098589A85E08A95F1F7000089B1A7
:101C200081700895CF93DF93EC010E94FF0D88230C
:101C300011F0209721F4CE01DF91CF91089585E036
:101C40008A95F1F700002197F0CFCF93DF93EC0155
:101C50000E94FF0D811102C0209721F4CE01DF9177
:101C6000CF91089585E08A95F1F700002197F0CF94
:101C7000A0E0B0E0EEE3FEE00C949731C82F1092A4
:101C8000A702809111019091120180911101909110
:101C9000120181159048C9F70E94FF0D0E94090E9C
:101CA000E998F8948BE0E82EFF24F394D0E0DD244B
:101CB000D39494E0C92EBB24B3940E9488078FE18B
:101CC00093E00197F1F700C000000E9482078FE1C6
:101CD00093E00197F1F700C000000E947F0780E1C8
:101CE00097E20E94120E892B71F4B092A7028091A4
:101CF000A702813009F0A4C0EA94EE2009F4A0C044
:101D00001092A702DACF00E010E090E59A95F1F783
:101D1000CE01002E02C0959587950A94E2F780FFC8
:101D20000DC0FD240E94850782E390E00E94250EED
:101D3000892B39F482E08093A702D9CF0E948207D1
:101D4000F3CF82E390E00E94120E892B11F483E01E
:101D5000F2CF0F5F1F4F08301105B9F620E52A9525
:101D6000F1F7FF2059F00E94850782E390E00E947E
:101D7000250E892B31F4C092A702B9CF0E948207A9
:101D8000F4CF82E390E00E94120E892B11F485E0DB
:101D9000D2CF80E58A95F1F70E9485070CE211E029
:101DA0000E94090E882361F00115110511F486E0E7
:101DB000C2CF95E09A95F1F7000001501109F0CFDC
:101DC00001151105A1F30CE211E006C025E02A95EA
:101DD000F1F70000015011090E94090E811105C0A0
:101DE0000115110599F787E0A6CF01151105D9F363
:101DF0008CE291E00E94250E892B11F488E09BCFA4
:101E00000E9494070E947F070E9485077894E19AB8
:101E1000E99AC9E10E94A7078F3F980729F0CDB73B
:101E2000DEB7E9E00C94B3318FE99FE00197F1F759
:101E300000C00000C150C111EDCF8FEF9FEFEFCF79
:101E40008091A70280618093A7020E9488078FE398
:101E50009FE10197F1F700C000000E947F070E94F8
:101E600085077894E19AE99AE8CFCF939091A102FF
:101E7000923080F082FBCC27C0F980FDC26081FDEA
:101E8000C4608DEE0E94380E8A3F910519F48C2FA4
:101E90000E94380ECF9108959C012115310509F457
:101EA00008958FE99FE00197F1F700C000002150ED
:101EB0003109F3CFCF93DF93D82FC92F81E08093DF
:101EC000E9008FEF9091E80095FD07C095ED9A9598
:101ED000F1F7000081508111F5CF8091E80085FD78
:101EE00003C0DF91CF91089540E050E068E070E0DA
:101EF0008D2F9C2F0E94E10C8091E8008E778093BB
:101F0000E80088E0ED2FFC2FA9E7B1E001900D92E9
:101F10008A95E1F7E6CF809376017093780160931C
:101F200077018091D8018430F9F48093E9008FEF34
:101F30009091E80095FD07C095ED9A95F1F70000A6
:101F400081508111F5CF8091E80085FF0DC040E000
:101F500050E063E070E086E791E00E94E10C809140
:101F6000E8008E778093E8000895BC0183E00E942A
:101F70008B0F0895BC0184E00E948B0F0895CF93CE
:101F8000682FC92F84E090E00E94FF316C2F82E21D
:101F900090E00E94FF31CF910895882381F06DEA8F
:101FA00083E290E00E94FF3166EF84E290E00E94BD
:101FB000FF316FEB85E290E00E94FF3108956FEFF3
:101FC00083E290E00E94FF316FEF84E290E00E9494
:101FD000FF316FEFEFCF1F93CF93DF93C62F122FF9
:101FE000632F8230D8F4C830C8F44031B8F490E29E
:101FF000C99FE001112450E0440F551FC40FD51FA5
:1020000090E0982F8827C80FD91FCE0187960E948D
:10201000FF31612FCE0188960E94FF31DF91CF9171
:102020001F910895CF93DF93CBE4D2E060E0CE011F
:102030000E94FF312196C11584E0D807B9F7DF91DE
:10204000CF910895CF9384E090E00E94EB31C82FA8
:1020500082E290E00E94EB31982F8C2FCF9108956F
:1020600083E290E00E94EB318D3A89F484E290E0C3
:102070000E94EB31863F59F485E290E00E94EB31FB
:1020800091E08F3B09F090E0892F8170089580E006
:10209000FCCF0F931F93CF93DF93823030F56830DE
:1020A00020F5403110F520E2629FE001112450E05C
:1020B000440F551FC40FD51F90E0982F8827C80FD5
:1020C000D91FCE0187960E94EB31082F10E0102F08
:1020D0000027CE0188960E94EB319801282BC90178
:1020E000DF91CF911F910F91089580E090E0F8CF9C
:1020F000462F672F2091D6013091D701232B91F4E1
:10210000703F39F4403F71F48091A6019091A7018E
:102110000895823038F4783028F4403118F40E9461
:102120004910089580E090E00895A0E0B0E0EBE968
:10213000F0E10C9499317C0100912A0280912902EE
:10214000082BC7E0D0E010E0C8010C2E02C0959526
:1021500087950A94E2F780FD09C02197A8F7D12C52
:102160008D2DCDB7DEB7E7E00C94B531DC2EB7018D
:102170008C2F0E9478100E94F608019771F3F0CF1F
:10218000CF93DF93D82FC92F0E9495106D2F7C2FEE
:102190000E9478100E94F608DF91CF9108950E9466
:1021A000C0100E94050808951F93CF93DF93182F46
:1021B000D92F662399F0442389F00E949510C82FE7
:1021C000682F812F9D2F0E942208612F7D2F8C2F39
:1021D0000E947810DF91CF911F9108950E945608B8
:1021E000C82FF3CFFC01462F6281808191810E942C
:1021F000D41008950F931F93CF93DF9307E612E057
:10220000C7E2D2E0CE010E94EB31F80161918F016B
:10221000861719F0CE010E94FF312196CB34F2E0EF
:10222000DF0781F7DF91CF911F910F9108950F93F1
:102230001F93CF93DF9307E612E0C7E2D2E0CE010F
:102240000E94EB31F80181938F012196CB34F2E0AB
:10225000DF07A9F7C7EFD3E0FE01859194910097BE
:1022600011F0FC0109952C96F4E0C738DF07A1F7BF
:10227000DF91CF911F910F91089580912702909146
:102280002B02892B8093600180912602882309F11B
:102290008091690290916A02892B29F00E94C50BF6
:1022A00081110E94A8088091600190912602892BDB
:1022B0008093600120E082E691E0FC01308101968C
:1022C00031112F5F31E088369307B9F721110E9451
:1022D000A80848E050E06BED71E080E691E00E94D4
:1022E000CE31892BA9F088E0E0E6F1E0ABEDB1E07A
:1022F00001900D928A95E1F7E091D901F091DA0110
:10230000309731F00280F381E02D80E691E009956D
:102310000895882339F090912702892B8093270212
:102320000E943D110895882339F090912B02892B4A
:1023300080932B020E943D110895882321F00E9472
:10234000A0080E943D110895882341F08095909146
:102350002B02892380932B020E943D110895CF9375
:10236000C82F8823A9F08CEF8C0F813A98F4E2E60D
:10237000F1E088E691E02191C217B1F18E179F0735
:10238000D1F76C2F80E691E00E949F0B0E943D11D7
:10239000CF91089580E28C0F883068F4C77021E0F7
:1023A00030E001C0220FCA95EAF780912702822B04
:1023B00080932702EBCF8BE58C0F833038F42C2FE2
:1023C0002452330BC9010E94730BE2CFC85AC731A4
:1023D000F8F6EC2FF0E0EE0FFF1FE15DFE4F80817D
:1023E00091810E94890BD4CF8C2F0E9493080E9468
:1023F0003D11C7CFCF93DF93EC01805E9109089721
:1024000020F063E971E1209711F469E871E1CE01F0
:102410000E94D9078C2F0E94AF11DF91CF910895B0
:10242000662329F020912B02226020932B029C012D
:102430003056211540E2340720F0305E211530413E
:1024400008F499270E94FA110895882339F19CEF26
:10245000980F913A28F40E9493080E943D11089524
:1024600090E2980F983050F4877091E001C0990F76
:102470008A95EAF7892F0E94A008EFCF9BE5980F75
:10248000933028F480E090E00E94730B0895885AFE
:10249000873120F480E090E00E94890B0895CF936B
:1024A000DF93EC010E942512CE01805E910908970E
:1024B00020F064EA71E1209711F46DE971E1CE0139
:1024C0000E94D907DF91CF9108950F931F93CF9367
:1024D000C82F0091870210918802893321F0009162
:1024E0008502109186028C2F0E94AF1101151105F3
:1024F00039F48C2F0E942512CF911F910F910895CE
:102500008FE99FE00197F1F700C000000150110929
:10251000EDCFA0E0B0E0EFE8F2E10C949931EC01EE
:102520009881992309F49CC09130E1F599818A81C1
:10253000913021F422960E94651205C0923029F450
:1025400022960E94AF112196EBCF933021F4229670
:102550000E942512F8CF943011F02196F4CF2296E4
:1025600020E030E06AE0AE014F5F5F4F8053990B8F
:102570008A30910560F02115310529F38FE99FE03C
:102580000197F1F700C0000021503109F4CF629F9C
:10259000F001639FF00D11249C012E0F3F1F8981D4
:1025A000EA01E1CFE92FF0E0E755F64FD490292F6B
:1025B00026952695269530E0F901E756F64F849149
:1025C0009770F901E757F64FE490F12C092E02C0FD
:1025D000F594E7940A94E2F741E0E422FF24F9013C
:1025E000E758F64F049110E0092E02C015950795A3
:1025F0000A94E2F701701127E82FF0E002C0F59588
:10260000E7959A95E2F7E0FD0CC0E114F104A1F41E
:102610008D2D0E9465120115110509F494CF8CE2ED
:102620008ACF81EE0E94AF11E114F10479F48D2D6F
:102630000E94651281EE07C086EE0E94AF118D2DBB
:102640000E94651286EE0E942512E5CF86EE0E945A
:10265000AF118D2D0E94651286EE0E942512EACFE1
:10266000CDB7DEB7E7E00C94B5310F931F93CF934E
:10267000DF93C62FD42F122F8823A9F06093240252
:102680000E94B90B9093690180936801C77081E043
:1026900001C0880FCA95EAF70E948911DF91CF9196
:1026A0001F910F91089580912402681336C0809184
:1026B0006801909169010E94F40B20917F02309192
:1026C00080028217930748F5CD130CC0812F0E941A
:1026D0006512D77081E001C0880FDA95EAF70E9491
:1026E0009D11DCCFC77001E0802F01C0880FCA9513
:1026F000EAF70E949D1180E28D0F883050F48D2FF3
:10270000877001C0000F8A95EAF7802F0E94891117
:10271000DDCF812F0E946512C1CFC77081E001C05B
:10272000880FCA95EAF7DBCF80E090E00E94730B38
:1027300080E090E00E94890B10922B020E943D11D4
:10274000089510922702E2E6F1E086E0DF011D9293
:102750008A95E9F70E9494130895CF93DF938091AF
:10276000A702882391F08091A7028075811107C08C
:102770008091A6028B3019F48CE08093A60210920F
:10278000A7021092A5021092A4028091A3028823AE
:1027900009F19091A3028091A2029817D9F085FFC8
:1027A00004C09091A30294FD06C084FF0BC08091E9
:1027B000A30285FF07C08091A6028B3019F48CE03C
:1027C0008093A6028091A3028093A2021092A50298
:1027D0001092A402E091A602ED30D0F4F0E0E65CA5
:1027E000FC4C0C9481311092A1021092A002109224
:1027F0009F021092A2020E94F4050E94B90B9093CE
:102800009E0280939D0281E08093A6020E948D0724
:1028100081E0DF91CF9108950E94A7070196E1F72B
:1028200080919D0290919E020E94F40B893B9B40F7
:1028300078F382E08093A602EBCF8FEF0E94380EF0
:102840008A3F910511F486E0F5CF83E0F3CFE99854
:102850000E9488072E98269A2F98279A0E94B90BD3
:1028600090939E0280939D0284E0E4CF80919D022C
:1028700090919E020E94F40B853F914048F285E0C2
:10288000D9CF2E9826982F9827980E9494070E94B7
:102890008D070E94B90B90939E0280939D02D3CF27
:1028A0000E94A707019609F4B3CF0E94B90B909339
:1028B0009E0280939D0287E0BDCF80919D02909102
:1028C0009E020E94F40B853F914018F089E08093AE
:1028D000A6020E94A707019609F49ACF0E94B90B9D
:1028E00090939E0280939D0288E0A4CF80919D02E8
:1028F00090919E020E94F40B853F914018F089E070
:102900008093A6020E94A707019609F481CF89E06F
:1029100091CF8091A302813159F48DEF9FEF909375
:10292000A00280939F0282E08093A1028AE082CF7E
:1029300082EF0E94380E8F3F980731F49093A002E7
:1029400080939F0281E0F0CF8A3F910519F08EEFCE
:102950009FEFE5CF0E94550DEC01CF3FDC0729F436
:102960001092A00210929F02DECFDC2FCC270E9493
:10297000550D9E01282BC9019093A00280939F02C0
:10298000009789F28F3F9807E9F29C012D5F3F4F36
:102990002230310540F228583B4A2230310520F0E0
:1029A00082394BEA940781F480EF0E94380E8A3F07
:1029B000910509F0B8CF83E00E94380E8A3F910557
:1029C00009F0B1CF83E0B0CF9C0120593B4A2230BF
:1029D000310538F582E08093A10280EF0E94380E25
:1029E0008A3F9105B9F080919F029091A0028139B0
:1029F0009B4A09F09BCF80EF0E94380E8A3F9105D9
:102A000009F094CF83E00E94380E8A3F910509F0C7
:102A10008DCFD8CF82E80E94380E8A3F910519F7F2
:102A200085CF803B3FEB930769F2882781154BEAFE
:102A3000940709F478CF81152FEB920719F28115CD
:102A40009F4709F4BFCF80EF0E94380E8A3F91055F
:102A500009F0AACF82E00E94380E8A3F910509F062
:102A6000A3CF61CF8091A1028230C1F0833099F071
:102A70008BE08093A6020E94A7078F3F980709F476
:102A8000C7CE009719F08F3F910569F40E94F405B5
:102A90000E94A113BDCE88EF0E94380E0E94660BE3
:102AA0000E94350FE5CF9091A102923009F44DC0FC
:102AB000933009F402C1913009F0AACE90919A02A4
:102AC000923099F158F491111AC0803E71F0813E14
:102AD00081F087FD10C00E9426069ACE933069F1DE
:102AE000943079F110929A0293CE81E080939A0209
:102AF0008FCE82E0FBCF8F770E94450689CE8A3A3F
:102B000089F358F48A3271F3863361F387FD07C085
:102B10000E9467060E942606E5CF863BF6CF8F7798
:102B20000E9467060E944506DDCF8D3121F08D3968
:102B3000C9F684E0DBCF83E0D9CF853499F685E50B
:102B4000E9CF853C79F685E5EDCF982FE0919B02A2
:102B5000E93078F5F0E0E95BFC4C0C948131209190
:102B60009F023091A00220593B4A2230310518F4CF
:102B70000E940707982F903E99F048F49338B1F0DF
:102B80008FE79438A1F097FD07C0892FA4CF913E1D
:102B900059F081E0903F29F00E94F4058CE04ACE84
:102BA00082E080939B0234CE84E0FBCF82E00E94DF
:102BB000260610929B022CCE20919F023091A002FB
:102BC00020593B4A2230310520F48131B1F0813463
:102BD00069F0893571F3803F39F0823151F31092F9
:102BE0009B0287FDD9CF05C083E0DBCF10929B020B
:102BF0009CE7892F0E94A2066ECF10929B0293E160
:102C0000F8CF20919F023091A00220593B4A2230F8
:102C1000310518F40E940707982F933841F0943833
:102C200051F010929B0297FDB7CF892F65CF82E0BC
:102C30000E944506BECF8FE7FBCF20919F023091C7
:102C4000A00220593B4A2230310520F4813169F03D
:102C5000813491F0823109F4ACCF893509F4A9CFE0
:102C600010929B0287FD98CF03C010929B0293E1C4
:102C7000892F0E94A20640CF10929B029CE7F8CFBA
:102C8000843129F0803F09F094CF86E08ACF85E037
:102C900088CF873709F08DCF80E089CF843109F064
:102CA00088CF87E07ECF803F09F083CF88E079CF5F
:102CB000873709F07ECF80E0BBCF982F8F3B29F07C
:102CC00038F426E5280F223028F410929C0266CFB3
:102CD0008C3FD9F320919C022223D9F0213009F0B6
:102CE00097CD10929C0220919F023091A002223930
:102CF0004BEA340709F045C00E942F07982FEDE7F3
:102D0000E90FEB3008F054C0F0E0E05BFC4C0C94B1
:102D1000813120919F023091A00222394BEA340781
:102D200081F40E942F07982F9E3888F4933830F151
:102D3000EDE7E90FEB3010F5F0E0E55AFC4C0C94B0
:102D4000813121393B4A81F70E944207ECCF903F05
:102D500009F05ECD81E080939C025ACD82E0BBCE2B
:102D60008FE7B9CE88E6B7CE88E7B5CE80E0B3CEA0
:102D700081E0B1CE89E0AFCE8AE0ADCE97FD48CDFF
:102D800004CF21393B4A09F0BACF0E944207B6CF9F
:102D900082E0B2CE8FE7B0CE8BE0AECE86E0ACCE96
:102DA00080E0AACE81E0A8CE89E0A6CE8AE0A4CEBB
:102DB00097FD2ECD3ACF0E94A1131092A60228CDE6
:102DC0000E94A1132FEF84E39CE0215080409040AB
:102DD000E1F700C0000080918F02811102C02D9A9E
:102DE00008952D9808950E94E01688E19AE00FB6A4
:102DF000F894A895809360000FBE90936000FFCF79
:102E0000CF92DF92EF92FF92FB018FEF9FEF443062
:102E1000510508F47FC0C080D180E280F3800E9419
:102E2000A113D701C601B695A7959795879581708F
:102E3000282F220FD701C60181709927AA27BB2707
:102E4000822BB701A60132E0769567955795479595
:102E50003A95D1F74170440F440F842BB701A60176
:102E6000E3E07695679557954795EA95D1F74170D8
:102E7000440F440F440F842BB701A601F4E076956C
:102E8000679557954795FA95D1F741704295407FE0
:102E9000842BB701A601A5E07695679557954795D0
:102EA000AA95D1F741704295440F407E842BB7011B
:102EB000A601B6E07695679557954795BA95D1F7EF
:102EC00041704295440F440F407C842BB701A6010A
:102ED00097E076956795579547959A95D1F74795D9
:102EE00044274795842B80938B02D1FA882780F959
:102EF000880F9D2D9170892B90918C029C7F892B3E
:102F000080938C0280918B0290918C020E94BF0F63
:102F100080E090E0FF90EF90DF90CF900895E7E69B
:102F2000F2E0128E138E8FEA90E09183808385E029
:102F3000848F28E833E13383228322E330E0378B28
:102F4000268B28EC30E0318F208F158E2AE030E080
:102F5000378F268F20E530E031A320A382A30E9483
:102F6000FA100E94A11310928C0210928B0280E042
:102F7000846080938C0280E094E00E94BF0F0E94E6
:102F8000171108958F929F92BF92CF92DF92EF9286
:102F9000FF920F931F93CF93DF938090D401909073
:102FA000D50181E090E09093D5018093D401C12CAC
:102FB000D12CB12C760110E012C0FE012591349184
:102FC000402F612F8B2D0E94EB0F22960F5F003157
:102FD000A1F780E1E80EF11C1F5F183039F0E7011E
:102FE000CC0FDD1FC351DE4F00E0E7CF80E8C80EF5
:102FF000D11CB11003C0BB24B394DCCF0E948F1747
:103000009092D5018092D401DF91CF911F910F91C1
:10301000FF90EF90DF90CF90BF909F908F9008959A
:1030200080E00E94CD0F60E086E290E00E94FF31D8
:103030000E94C2170E94121081E00E94CD0F0895D5
:10304000AAE2B0E0E6E2F8E10C949D318EE691E070
:10305000FC0101962091F100208321E08637920740
:10306000B9F780916F01893009F456C0C8F48230F5
:1030700009F4B3C0833009F482C0813071F18091CA
:10308000E80083FFE7C080916E0190916F019A3054
:1030900008F0E0C0E92FF0E0EA59FC4C0C948131D3
:1030A0008A3009F489C08B3051F780916E018132EA
:1030B00031F78091720190917301892B01F7809112
:1030C000E800877F8093E8000E94720C8091700175
:1030D000809300010E94A113D2CF80916E01813AAA
:1030E00071F68091E800877F8093E80080917201FB
:1030F00090917301892B61F060E080E090E070E0D6
:103100000E94190C8091E8008B778093E800B7CF7C
:1031100068E089E791E0F3CF80916E01813209F098
:10312000AECF80917201909173018D7F892B09F050
:10313000A6CF8091E800877F8093E8008091E80027
:1031400082FF18C09091F3008091F200029731F451
:103150008091F100813011F0863021F48091F100EE
:10316000809381018091E8008B778093E8000E9432
:10317000720C85CF8091D8018111E0CF80CF8091F2
:103180006E01813A09F07BCF8091720190917301B9
:10319000892B09F074CF8091E800877F8093E80045
:1031A0008091E80080FFFCCF809100018093F100C6
:1031B0008091E8008E77D9CF80916E01813209F03D
:1031C0005ECF8091E800877F8093E8000E94720CB8
:1031D0008091710180936A0152CF80916E01813A92
:1031E00009F04DCF8091E800877F8093E8008091BF
:1031F000E80080FFFCCF80916A01D8CF803889F049
:10320000823841F5809172018F70873018F5809374
:10321000E9008091EB0085FB882780F91092E90096
:1032200006C080916B019091B901911182609091DB
:10323000E800977F9093E8008093F1001092F100EE
:103240008091E8008E7723C0811116C080917001B3
:10325000813011F18091E80083FF0AC08091E8007D
:10326000877F8093E8008091EB0080628093EB0081
:10327000AA96E3E00C94B931823061F78091700135
:10328000882389F01092E9008091E800877F80937D
:10329000E8000E94720CDECF81E0933009F080E0FC
:1032A0008093B901EFCF809172018F702FEF280FBB
:1032B000263080F68093E9002091EB0020FFE2CFDA
:1032C000933031F48091EB0080628093EB00DACF91
:1032D0009091EB0090619093EB0021E030E0A90128
:1032E00002C0440F551F8A95E2F74093EA001092FE
:1032F000EA008091EB008860E8CF8111ABCF10919C
:1033000070011F778091E3008078812B8093E30028
:103310008091E800877F8093E8000E94720C809182
:10332000E80080FFFCCF8091E30080688093E30099
:1033300083E0111101C082E08093D8018BCF8058C7
:10334000823008F087CF40917001509171014C3D5F
:1033500083E0580799F583E08A838AE289834FB72F
:10336000F894DE01139620E03EE051E2E32FF0E016
:1033700050935700849120FF03C082958F703F5F68
:103380008F708A30C8F0895C90E08D939D932F5F99
:10339000243161F74FBF8091E800877F8093E80078
:1033A0006AE270E0CE0101960E94190C8091E8005B
:1033B0008B778093E8004ECF805DE6CF80917201DD
:1033C00090917301252F33272330310509F44AC02A
:1033D00078F52130310509F483C08BE590E0E0E415
:1033E000F1E02230310509F035CF2091E800277F48
:1033F0002093E800209174013091750182179307A2
:1034000008F49C0140E02115310509F06EC041111E
:103410006CC08091E80082FDC9CF8091D8018823DB
:1034200029F2853019F28091E80083FFF2CFBECFF8
:103430002132310509F445C02232310509F00ACFA5
:103440008330910508F006CFFC01EE0FFF1FED5D04
:10345000FE4F0190F081E02D805E9E4FDC018C914B
:1034600090E010C0CA019927423019F183309105CC
:1034700068F4892BB1F4E9EEF1E0E4918E2F90E04D
:10348000E9EEF1E0009709F4E5CEAFCF039709F03C
:10349000E1CEEDEAF1E0E4918E2F90E0EDEAF1E08B
:1034A000F1CFEFEDF1E0E4918E2F90E0EFEDF1E060
:1034B000E9CFEBECF1E0E4918E2F90E0EBECF1E062
:1034C000E1CF8330910508F0C5CEFC01EE0FFF1F60
:1034D000E75DFE4F0190F081E02D89E090E085CF1F
:1034E00082E190E0EBE9F1E080CF8091D801882380
:1034F00009F45CCF853009F459CF8091E80083FD51
:1035000055CF8091E80082FD84CF8091E80080FF54
:103510007ACF9091F3008091F2002115310519F0D6
:103520008830910550F041E0089709F040E0809123
:10353000E8008E778093E80066CF44914093F100D5
:103540003196215031090196E8CF803809F082CEBA
:103550008091E800877F8093E80080916C018093E0
:10356000F1006ECE811176CE10917001123008F00C
:1035700071CE8091E800877F8093E80010936C0102
:103580000E94720C112309F184E08093D80142E07B
:1035900061EC81E00E946D0D42E261EC84E00E94EA
:1035A0006D0D42E261EC82E00E946D0D42E260EC42
:1035B00083E00E946D0D8091D801843061F482E037
:1035C000809319020E94620B45CE8091E30087FD33
:1035D000DBCF81E0DACF81E0F3CF809329020E9434
:1035E0009413089580932A020E949413089521E071
:1035F00030E001C0220F8A95EAF780912A02822BDF
:103600000E94F21A089590918C0292FF10C098E0E7
:10361000899F90011124622B60932C020E94F71A5B
:103620000E94B90B90932E0280932D0208950E9460
:10363000F71A089521E030E0A90102C0440F551F98
:103640008A95E2F7CA01809590912A0289230E9407
:10365000F21A089520912C028095822380932C02E7
:10366000982F9770911117C030E0482F082E000C4A
:10367000550B2417350779F090918C0292FF0BC0FF
:103680008595859585950E941A1B10922C021092A3
:103690002E0210922D02089590918C0292FB222707
:1036A00020F9281769F080FB92F990938C028091A1
:1036B0008B0290918C020E94BF0F82E00E942A1B15
:1036C000089580912A02982F9670963021F4886090
:1036D0000E94F21A0895877FFBCF80911001877FA7
:1036E0008093100190912B029D7F90932B0284FF79
:1036F00008C08F7E809310018091270282608093A2
:1037000027028091100185FF08C08F7D80931001F2
:10371000809127028062809327020E943D110895C4
:10372000CF92DF92FF920F931F93CF93DF93EC0121
:103730008B01F42E8091100182FF6BC0C0901C029F
:10374000D0901D02CC16DD0619F0209709F061C05B
:10375000809110018B7F80931001C1E081FD10C02A
:1037600080911A0290911B029801281B390BC1E02D
:1037700080910D0190910E012817390708F4C0E0DF
:10378000C17080911001C0FB81F9809310016C2FF2
:10379000C6010E94F70A8091270281FF08C080912C
:1037A000100180618093100182E00E94A008809146
:1037B000270285FF08C0809110018062809310016C
:1037C00080E20E94A0086C2FC6010E941012FF2008
:1037D00031F08091820285FF02C086FF33C0809164
:1037E0008502909186020E944C0F80911C0290915C
:1037F0001D029C013056211540E2340720F0305E56
:103800002115304108F499270E944F120E946D1B28
:1038100015C0CE019056811520E2920720F0905EEF
:1038200081159041B8F4CE0199270E944F128091E2
:103830001C0290911D02C817D90741F310931B0277
:1038400000931A02DF91CF911F910F91FF90DF90AB
:10385000CF900895CE01E9CFAB01BC0188E190E0A3
:103860000E9411320895A4E0B0E0E9E3FCE10C9479
:103870009E31E5E1F2E08081816080830E94560BF9
:103880008091150290911602A0911702B091180232
:10389000BC01CD010E942C1C2496E2E00C94BA31AC
:1038A000A4E0B0E0E6E5FCE10C949E31E5E1F2E055
:1038B00080818E7F80830E94560B809115029091AB
:1038C0001602A0911702B0911802BC01CD010E940E
:1038D0002C1C2496E2E00C94BA31A4E0B0E0E3E7BB
:1038E000FCE10C949E31A5E1B2E08C9181608C9357
:1038F0000E94560BE5E1F2E08081897F8083E6E15A
:10390000F2E080818770A7E1B2E09C919C7F9C935C
:1039100080628B7F808384E080930F018091150209
:1039200090911602A0911702B0911802BC01CD012E
:103930000E942C1C2496E2E00C94BA3168EE7EEFD3
:1039400080E090E00E941D3260E082E090E00E9402
:10395000FF3160E083E090E00E94FF311092290285
:1039600060E084E090E00E94FF3164E082E290E059
:103970000E94FF3160E085E090E00E94FF3160E04E
:1039800086E090E00E94FF316FEF87E090E00E94B8
:10399000FF3140E050E0BA0188E090E00E9411322F
:1039A00060E08DE090E00E94FF3140E050E0BA011D
:1039B00088E190E00E94113260E087E190E00E948F
:1039C000FF3140E050E0BA018CE190E00E941132FA
:1039D00060E070E080E290E00E941D320E946D1C69
:1039E00080E00E94CD0F0E94101840E050E0BA0124
:1039F0008FE090E00E94113240E050E0BA0183E194
:103A000090E00E9411320895A8E0B0E0EAE0FDE104
:103A10000C9494317C01DC019C9111968C9111974E
:103A200013962D913C91232B11F40C94832589231B
:103A30008F3F11F40C94832561E0C7010E94F210BE
:103A40008C01F7018281882309F429C1F801E65E1F
:103A5000FC45ED30F10508F022C1E059FC4C0C9416
:103A600081310E94331C8091150280FFD3C7D7019A
:103A700012968C9121C090911902923009F013C1D5
:103A80009091150296959370882309F460C1923045
:103A900008F009C1B701C8010E941D0B882309F471
:103AA00002C10E94340DFFC00E94501C809115027B
:103AB00080FFB0C7F701828190911902923001F323
:103AC0008111F6C082E001315FE5150711F40C9415
:103AD0006E25B7C78091150280FF13C00E94501C4D
:103AE0008091150290911602A0911702B0911802D0
:103AF0008D839E83AF83B887BC01CD010E942C1CAF
:103B0000B2CF0E94331CECCF0E946D1CCFCF90919E
:103B10001502892F86958F5F8370880F997F892B77
:103B200080931502982F96709630D1F6897F8093F6
:103B30001502D6CF90911602892F8B7F92FF846059
:103B400080931602CDCF20911502322F36953695EF
:103B5000369590911602892F83708295880F807E0A
:103B6000832B8F5F382F330F330F330F2770232BA7
:103B7000209315028295869583709C7F982B909355
:103B80001602AECF20911502322F36953695369516
:103B900090911602892F83708295880F807E832BE7
:103BA0008150E0CF909116029695969596958091CA
:103BB000170283708295880F807E892B8436D8F413
:103BC00090E0019680930F01282F220F220F220FE1
:103BD000309116023770232B2093160235E096950C
:103BE00087953A95E1F78370909117029C7F892B16
:103BF0008093170275CF84E090E0E4CF9091160295
:103C00009695969596958091170283708295880F68
:103C1000807E892B853018F08150990BD3CF84E6B4
:103C200090E0D0CF8091170282FF02C08B7FE0CF5F
:103C30008460DECF90911702969596959695809127
:103C400018028295880F807E892B8837A8F4865FBA
:103C5000982F990F990F990F209117022770922B87
:103C60009093170282958695877090911802987F9D
:103C7000892B8093180234CF88E7EACF90911702FE
:103C8000969596959695809118028295880F807EDC
:103C9000892B843110F08A50DBCF84E1D9CF909109
:103CA000150290FDE8CEF7018281882309F40FC741
:103CB000C80182519F45409708F0B7C68FEF93E047
:103CC0000E94EB3181110EC72EEED22ED00E0BE4E6
:103CD00012E0D11040C08091130190911401A09185
:103CE0001501B091160189839A83AB83BC83680167
:103CF0002FEFC21AD20AC8010E94EB3189831A82BF
:103D0000882309F4EFC6813009F091C0580142E0E0
:103D1000A40EB11CC6010E94EB31D82E8A838823E1
:103D200009F4E0C6C5010E94EB31C82E8FEF8D0D5E
:103D30008330F8F4CB82CC2021F0CE0101960E9492
:103D40008912580153E0A50EB11C8501D0CF9923EB
:103D500009F4A9CF9FCE0115F4E01F0709F4C2C6EC
:103D6000C8010E94EB310F5F1F4F8111F4CFDA942D
:103D7000B0CF8BEF8D0D833088F5580183E0A80E0E
:103D8000B11CCB82CC2009F3C5010E94EB318C839E
:103D90008823D9F0AB80BC8091E0A9169FEFB906CB
:103DA00010F0BA2CAA24A6E0DA16A1F0B7E0C501FB
:103DB000DB1649F00E948C28809185029091860242
:103DC0000E944C0FC5010E94B0285801E4E0AE0EDD
:103DD000B11CBBCFC5010E948C28F7CFF4E0DF12E5
:103DE000B4CF580124E0A20EB11CC80103960E9472
:103DF000EB31CC2009F476C6882309F473C68150D0
:103E0000990B4FEF489F9001499F300D11244C2D85
:103E10004150550B240F351F2150310908F495CF1F
:103E20008FE99FE00197F1F700C00000F5CFCE01C8
:103E300001960E948912560188CF0E94F71A50C637
:103E400080911001816080931001D70112968C91AE
:103E5000882321F010921D0210921C02D7011296A5
:103E60008C91811110922402F7018281811155C138
:103E70000631ACE51A0709F0A0C0909127023091F5
:103E8000810230FF04C0292F2474211120C3292F5F
:103E90002A7A31FF04C0492F4171411120E0432F9C
:103EA000487032FF16C3392F3878332309F411C311
:103EB000411125C3811118C380912502882309F47B
:103EC00020C385E30E94930817C3809110018E7F61
:103ED000809310010E946D1B8091100180FDE4C54C
:103EE000D70112968C91882309F467C0109224029E
:103EF000C8018A5F9C45099708F0E3C20E9422101E
:103F000090938C0280938B02F801EB5FFC45E830C4
:103F1000F10508F059C2E358FC4C0C948131F701CB
:103F20008281980130562115F0E23F07C8F0305EDB
:103F30002115304108F009C110921D0210921C0297
:103F40008823D9F11092240202305CE5150708F0AD
:103F50000CC20E3D8CE51807C9F40E949E1CF8C2E5
:103F600010921D0210921C02882339F11092240233
:103F70000C358DE5180708F0E6C20E3D9CE51907E3
:103F800061F30A35ADE51A0709F4CCC20115BCE5A9
:103F90001B0799F40E94E0160E94030C8091100107
:103FA0008F7E013E110539F0053E110509F079C0FB
:103FB000809110018F7D80931001F7018281C08074
:103FC000D180882309F4C8C2C6010E949510182F19
:103FD000682FC6010E942208B601812F0E94781026
:103FE0000E94F608182FD92ED7011296BC9012976E
:103FF0001596CC90C2948FE0C82280912C028770D5
:104000008823C1F0AB2CBB20B1F0892F807F803496
:1040100021F080E2810F883068F080918C0282FF6D
:1040200009C082E00E942A1B80912C028770AA247A
:10403000A3948111A12C8D2D82958F70883009F465
:10404000A0C308F0B7C2843008F08BC20D2D0F70EA
:10405000823008F4C0C28D2D807F803211F002952D
:10406000007F112309F4EEC2113009F44FC3BB20C5
:1040700009F458C3CC2009F41FC340E0D7011296BD
:104080006C9112978D919C910E94D4108091840222
:1040900081FDB7C2F701858180FFB3C28F70858330
:1040A0000BC3C8019056811550E2950728F0905E29
:1040B0008115904108F049C08091100182FFCECE59
:1040C0008091840281FD06C040E0B50180E090E06F
:1040D0000E94901BF7018281033FFCE51F0709F452
:1040E000F2C408F490C0053FACE51A0709F42CC1EE
:1040F00027E245EE66EE063FBCE51B0709F44AC021
:1041000027E245EE64EE043FECE51E0709F442C0E9
:10411000882309F452CF109224020136FDE51F07CF
:1041200009F019C10E94221090938C02809584FBA3
:10413000809584F980938B0280918B0290918C0200
:104140000E94BF0F0E94A113CDC4F70182819091FC
:10415000100190FFBFCF08321105F8F40E311105A0
:1041600008F046C09801245031092A313105C0F1C8
:10417000882371F110921D0210921C02093D5CE52A
:10418000150719F126E241EE61EE073D9CE519079E
:1041900009F064CE0E943513A5C409331105D0F48B
:1041A0000D321105C8F50B321105B1F1882381F0EC
:1041B00010921D0210921C02083D9CE5190741F166
:1041C000093DACE51A0709F049CE28E241E022C0DA
:1041D00080E0F2CF04361105F9F0811124C07ACFC6
:1041E0009091820294FF24C0882309F4E6CEC2CFC6
:1041F0009091820293FF1CC0882309F4DECE1092B6
:104200001D0210921C02083D4CE5140709F0B6CFC0
:1042100027E245EE65EEBECF9091820292FF08C084
:10422000882309F41BCE10921D0210921C0252CF5B
:10423000882309F483C09091270280912602D82E0A
:10424000D92A2D2D2D7F2223C9F010921D02109204
:104250001C022091820221FD11C060E0C8010E9471
:10426000F70A60E0C8010E941012809126028D7F3B
:104270000E94E00B82E00E942A1B34C426E0F70172
:10428000AEE1B2E001900D922A95E1F71092200282
:10429000109222021092210280901C0290901D0226
:1042A00008151905B1F52091820225FF32C0C09092
:1042B0001001C1FACC24C0F8CC2011F026FF29C08F
:1042C00020911A0230911B02A501421B530B209131
:1042D0007F023091800242175307D8F491FF08C043
:1042E0008091100180618093100182E00E94A008FB
:1042F0008091270285FF08C0809110018062809321
:10430000100180E20E94A0086C2DC4010E941012CE
:10431000E9C38D7F0E94E00B10931D0200931C02E5
:10432000B0921B02A0921A028D2D8270846090912F
:104330001001997F892B809310019CCF40E0B5013B
:10434000C8010E94901BCEC326E241EE62EE22CF4E
:10435000F7018281C8CD02362DE51207B8F4063187
:104360004CE5140708F0C4CDEFCD0E9422109093C5
:104370008C0280938B02F801E250FC45E431F10598
:1043800008F0DACEEB57FC4C0C948131053A9DE5F0
:10439000190709F0EDCD0E94221090938C028095B0
:1043A00080FB809580F9C6CE80918B028160C2CE61
:1043B00080918B028260BECE80918B028460BACEE7
:1043C00080918B028860B6CE80918C028160809350
:1043D0008C02B2CE80918C028260F9CF80918B02E8
:1043E0008061A8CE80918B028062A4CE80918B02E6
:1043F0008064A0CE0E94A11380918B0280689ACE27
:1044000080918B028C6096CE80918C028360DFCF8E
:1044100080918B028E7F8ECE80918B028D7F8ACE93
:1044200080918B028B7F86CE80918B02877F82CE9C
:1044300080918C028E7FCBCF80918C028D7FC7CFF5
:1044400080918B028F7E76CE80918B028F7D72CE93
:1044500080918B028F7B6ECE0E94A11380918B0284
:104460008F7768CE80918B02837F64CE80918C029F
:104470008C7FADCF80918B0282FB992790F921E050
:10448000922790FB82F990FB83F954CE80918C02A5
:10449000982F909591708E7F892B90FB81F997CF03
:1044A0000E94A11390918B02892F97FB87F9805866
:1044B00041CE61E08EE090E00E94FF313DCE60E0B1
:1044C000F9CF0631BCE51B07F1F481E0D6CC20E042
:1044D000E0CC442319F092729111ECCC882309F4BA
:1044E000EBCC65E3211102C080E069E280932502F4
:1044F00080E691E00E949F0B0E943D11F3C220E0F4
:10450000EACF89E2DFCC0B35EDE51E0719F160F447
:104510000E3D2CE5120709F420CD0A354DE51407B0
:1045200009F04BCD81E00CC00C355DE5150709F0B5
:1045300044CD80918C0282FB882780F991E0892705
:104540000E944C1B3ACD073AEDE51E0709F035CD28
:104550000E94F31680E0F4CFC6010E945608182F7F
:104560003BCD843009F4F0C0812F9D2D0E940508B9
:10457000811131C210928E0210928D02AA20A9F0F0
:1045800080912C0280FD11C0F701128285958595DE
:1045900085950E94F71AC7010E94041D80912C0284
:1045A0008595859585950E941A1B60E0C7010E943C
:1045B000F210A9C2893009F457C18A5F8F70823026
:1045C00098F6123F09F062C18D2D8F71B1105BC159
:1045D0000E94F71A04C1BFE0BD1510F40295007FD8
:1045E000BB20B9F0002369F080E2810F883010F021
:1045F000111109C080912702802B809327020E940D
:104600003D11812F2FC080912B02802B80932B0294
:10461000F6CF812F0E942512002309F4A5CF80E256
:10462000810F883010F0111104C0802F0E94A00863
:1046300006C0009580912B02802380932B020E945C
:104640003D1192CF80918C0282FD16C0BB2069F093
:10465000002339F080912702802B809327020E944B
:104660003D1180E00E94AF117FCF80E00E942512B3
:10467000002309F479CFD9CFBB2011F1C11004C0B8
:1046800080912602802B19C0E1E0CE1206C08091F5
:104690002602802B0E94E00B67CF8091830282303C
:1046A00078F3C812EDCF0E94A80890912802802FBD
:1046B000892B891380932802802F0E94891154CF5F
:1046C000C11003C00E94A80818C080918302F1E0C5
:1046D000CF1217C0823008F447CF80912702802381
:1046E000882309F441CF0E94A80890912802802FC6
:1046F00080958923891380932802802F0E949D1121
:1047000033CF8230F8F2C812DDCF2ECF80918902EC
:10471000BB2021F08C1508F427CFCECFC81608F0A7
:1047200023CFEBCFCC2049F3809187029091880270
:10473000193321F080918502909186020E944C0FDE
:10474000812F0E94251210CF8D2D8695869583701E
:10475000882369F0813009F007CF812F9D2D937058
:10476000B11002C080E090E00E94890BFDCE812F45
:104770009D2D9370B11002C080E090E00E94730BF9
:10478000F3CE8D2D8370811137C0B11028C0412F19
:10479000429546954770440F440F812F8F70042E29
:1047A00001C0880F0A94EAF7212F2071222339F0E3
:1047B0002FE030E001C0220F4A95EAF720953D2D09
:1047C000369536953370323091F0333071F0409138
:1047D0002902313049F0822B84230E94ED1A0E9475
:1047E000660B0E94350FC0CE842B822BF6CF822B16
:1047F000909129028927F1CFBB2059F1D0FEEFCF4C
:10480000412F429546954770440F440F812F8F707A
:10481000042E01C0880F0A94EAF7212F2071222369
:1048200039F02FE030E001C0220F4A95EAF72095D9
:104830003D2D369536953370323089F0333069F03E
:1048400040912A02313041F0822B84230E94F21AD7
:10485000C6CF823020F2D4CF842B822BF7CF822B8D
:1048600090912A028927F2CF0D2D0F70BB2039F0CD
:10487000802F0E94F71A812F0E948911B0CF812FBB
:104880000E949D11802F0E941A1BA9CF133F70F424
:10489000103FB9F0113FC9F1BB2009F489C0CC2009
:1048A00009F483C0812F0E94AF1199CF133FE9F023
:1048B000143F39F1B110F3CFC11083C08D2D8F712A
:1048C000E2CF80918902BB2061F0C81608F087CF43
:1048D0002D2D2F7181E090E001C0880F2A95EAF715
:1048E000BFCF8C1508F47BCFF3CF80E0BB2009F459
:1048F000ADCF81E09D2D9F7101C0880F9A95EAF799
:10490000A5CF80918C0282FD06C08D2D8F71BB20BA
:1049100009F4B9CF5DCE80918302823078F1BB205B
:10492000E9F090912C029770943061F410922C026F
:1049300010922E0210922D028D2D8F710E941A1B43
:10494000A12C4DCFC816E0F70D2D0F71802F0E94BE
:10495000F71A63E0802F0E94031BF2CFC81650F0B5
:1049600010922C0210922E0210922D0264E08D2DD6
:104970008F71F1CF81E00E942A1BE2CFBB2051F062
:104980000D2D0F71802F0E94F71A63E0802F0E9477
:10499000031B25CF81E00E942A1BF1E0FC1508F0E3
:1049A0001ECF82E00E942A1B1ACF8D2D8F7110CE50
:1049B000CC2009F483CF809187029091880219332B
:1049C00021F080918502909186020E944C0F812FE8
:1049D0000E94251204CFBB2019F0C110CBCDCECD43
:1049E000C110C8CD40E0D70112966C9112978D91FD
:1049F0009C910E94D4108091840283FFBBCD809152
:104A00008D0290918E02029709F0B4CD812F0E9401
:104A10006512B0CD8091820280FD17C0D701129639
:104A20008C91033FBCE51B074CC081E00031FFE5E2
:104A30001F0709F402CA82E001312FE5120709F4C9
:104A4000FCC98091820280FF45CB0E94B90B5C01BA
:104A5000F7018281882309F4A1CA8091100182FFA5
:104A600006C040E0B50180E090E00E94901B0B3151
:104A7000FCE51F0709F4E4C90C312CE5120709F421
:104A800024CA0A314CE5140709F049CA9091100173
:104A9000892F8E7F90FF8160809310010E946D1B93
:104AA0008091100180FF54CCD70112968C918823FD
:104AB00009F4B7CF10921D0210921C02033FFCE5CF
:104AC0001F0709F0A0CB26E241EE60EE63CB003178
:104AD0004FE5140711F00C94621D81E00E941A1B2F
:104AE0000E94611B80912C028770882361F0D7019E
:104AF00012968C91882339F080918C0282FF03C03A
:104B000082E00E942A1B2896ECE00C94B031A0E0D1
:104B1000B0E0EDE8F5E20C949931809166028031C5
:104B200008F051C080916302882309F44CC0C09101
:104B3000300286E0D82E80912F028C1709F443C0F2
:104B4000209161023091620280916402909165022D
:104B5000D0E00097E9F1432F42234F3FC9F1DC9E9B
:104B60008001DD9E100D1124F801EF5CFD4F4181A5
:104B700034132EC0308132132BC02281211128C062
:104B8000E380F480E81AF90A60E081E692E00E948E
:104B9000F21080917F0290918002E816F906C0F42D
:104BA000809166028F70806180936602F801EA5CF2
:104BB000FD4F80818F708061808381E692E00E944A
:104BC000041D0E948908CDB7DEB7E7E00C94B5312B
:104BD0002196C770B0CFABE0B0E0E1EFF5E20C9406
:104BE00093318C0185E0F801DE01179601900D925A
:104BF0008A95E1F7D801EC901196DC901197129606
:104C0000CC9012971396AD90BC9060E081E692E054
:104C10000E94F210909161028091620220916402E0
:104C2000309165022115310509F49DC189238F3F1B
:104C300009F499C1F09063024501821A930A60E079
:104C400081E692E0FF2009F43BC10E94F2104091FE
:104C50007F0250918002709066028416950608F0DB
:104C600005C18091610290916202209164023091AD
:104C70006502BFE0B71508F4B0C0232BE9F0282F78
:104C800029232F3FC9F0F8012181291315C09081F4
:104C9000981312C0C11027C0872D8F708061809338
:104CA000660281E692E00E94041D80916602D801AE
:104CB00015968C93F12C84C0443F514020F4809190
:104CC000840280FF3AC0A114B10409F45AC08E2DA9
:104CD0008D218F3F09F455C0E091300290912F0251
:104CE00026E0CC20C9F08091660281608093660244
:104CF000E1CF4E2F50E02E9FF0011124EF5CFD4FCD
:104D00003181D31206C03081E31203C032813111E8
:104D100008C0FA013196E770E913EBCF8F3FB1F489
:104D2000C9CF81E692E00E94041D86E0E1E6F2E050
:104D3000DF011D928A95E9F7BDCFA114B10409F1F5
:104D40008E2D8D218F3FE9F0C110CDCFE091300243
:104D500080912F0296E0E81318C08F8198850E94F9
:104D6000C010292F22952F70903218F59F7099232B
:104D700019F0882309F49ECF805E883008F49ACF1A
:104D80001CC0CC2009F496CFAECF2E2F30E09E9FD2
:104D9000F0011124EF5CFD4F4181D41206C0408127
:104DA000E41203C04281411185CFF9013196E770C9
:104DB000D2CF225F2F70223040F0C8010E94041D24
:104DC0008F2D2B96EDE00C94AF319F709923A1F2BB
:104DD000F8019581903180F66DCF232BE9F0282FD3
:104DE00029232F3FC9F0D80111962C91119729132F
:104DF00013C09C91981310C0C1100EC015967C92E0
:104E0000C8010E94041D86E0F801A1E6B2E001900D
:104E10000D928A95E1F727C0F801808191810E9467
:104E2000CF10882309F497C0CC2009F494C0809156
:104E30006602803270F080916102909162029A83E2
:104E400089831B82BD82AC827E82CE0101960E9444
:104E5000041D86E0F801A1E6B2E001900D928A956A
:104E6000E1F70E948725FF24F394AACFFFE0F7150E
:104E700008F057CF80916102909162022091640204
:104E800030916502232B41F2282F29232F3F21F255
:104E9000D80111962C9111972913BECF9C9198138C
:104EA000BBCFC110B9CF15967C92C8010E94041DDA
:104EB000E1E6F2E086E0DF011D928A95E9F7D3CFC3
:104EC0000E94F21080917F029091800288169906CC
:104ED00008F045C0CC2009F43EC080916102909159
:104EE00062022091640230916502232B41F1282F48
:104EF00029232F3F21F1D80111962C9111972913C5
:104F00001EC09C9198131BC08091840282FD7BCFB0
:104F10008091660280FD77CF803108F474CF1596BA
:104F20008C931597982F907F903F09F469CF982F15
:104F3000907F905F8F70892B15968C9361CFF801CD
:104F4000808191810E94CF10811183CF8091660270
:104F5000816080936602C8010E94041D84CFE1E64F
:104F6000F2E086E0E5CECC20B1F3F80180819181BA
:104F70000E94CF10882379F36CCFCF92DF92FF92FB
:104F80000F931F93CF93DF93CDB7DEB767970FB61D
:104F9000F894DEBF0FBECDBFF42E4B8B052F5C8B7C
:104FA000162F6D8B7E8B8F8B262FCE88DF88C114BA
:104FB000D10469F0852F84238F3F49F080918D02C1
:104FC00090918E02019690938E0280938D02211112
:104FD00010922B021A8A80918C0282FF21C080914C
:104FE000690290916A02892BD9F00E94B90B209135
:104FF0002D0230912E02821B930B20916902309179
:105000006A028217930738F080912C0282FD03C058
:1050100082E00E942A1B0E94C50B81110E94A808F1
:10502000FD860E871F87D98AC88A86E0FE013D96D5
:10503000DE01179601900D928A95E1F7CE01079651
:105040000E94EB25811113C086E0FE013796DE0138
:10505000119601900D928A95E1F78F8198852091A4
:105060002F02409130026A857B85672BA9F416E0F8
:105070008091300290912F0289133BC067960FB642
:10508000F894DEBF0FBECDBFDF91CF911F910F917E
:10509000FF90DF90CF90089589238F3F41F330E058
:1050A000C90101968770992750E08417950771F41C
:1050B0000E94A11310922F021092300286E0E1E6C6
:1050C000F2E0DF011D928A95E9F7D1CF96E0929F39
:1050D000D001939FB00D1124AF5CBD4FFE013196FE
:1050E00001900D929A95E1F780932F020E94890812
:1050F000BECF189FC00111248F5C9D4F0E94EB25ED
:10510000882309F4BBCF8091300290E0019687702C
:10511000992780933002ACCFA5E0B0E0E2E9F8E255
:105120000C949E319093A7018093A601811520E2F3
:10513000920730F40E94FA112596E2E00C94BA31FD
:1051400080EF89838A8381E08B830E94B90B816021
:10515000782F49815A816B81892F0E94BD27ECCF1E
:10516000A5E0B0E0E6EBF8E20C949E319093A70145
:105170008093A601811520E2920730F40E944F121D
:105180002596E2E00C94BA3180EF89838A831B82F2
:105190000E94B90B8160782F49815A816B81892FD8
:1051A0000E94BD27EDCF9C01CB01BA01F9013296D7
:1051B000459154916417750748F0F901349665914B
:1051C00074910E94DB3180E090E008958FEF9FEFB3
:1051D00008959C01DA010296FC0145915491FC016D
:1051E00085919491A817B90758F0F90134968591E3
:1051F00094910E94DB310E94FA1080E090E00895C3
:105200008FEF9FEF08951F920F920FB60F92112408
:105210002F933F934F935F936F937F938F939F93BE
:10522000AF93BF93EF93FF930E94090E9091910269
:10523000209111013091120121153048D1F5909340
:1052400090022091110130911201369527953093EB
:10525000120120931101882349F08091110190914E
:105260001201906890931201809311012091110115
:1052700030911201C9019927203A09F402C1813AFB
:10528000910508F056C08034910509F4B4C040F58A
:10529000409781F12F7D3327232B09F4ACC08091F7
:1052A0001101909112019093A5028093A40280E8CD
:1052B0000EC020919002921B933018F28091110140
:1052C000909112019093A5028093A40280E28093B2
:1052D000A70280E090E890931201809311018BC0A7
:1052E0008038910509F487C08039910519F080351F
:1052F0009105A9F680911101909112019093A50258
:105300008093A402809111019091120197FFC4C073
:1053100080E18093A302809111019091120126E017
:10532000969587952A95E1F7909312018093110144
:105330002FC0803D9105F1F2803E910509F46CC0CB
:10534000803C910509F0ABCF84E605C095E09A95C5
:10535000F1F700008150499902C08111F7CF499BB4
:1053600047C081113FC0809111019091120190932B
:10537000A5028093A4028091110190911201892FBE
:105380009927909312018093110182E28093A302E6
:10539000809111019091120190919702E0919502F4
:1053A000F0919602E90FF11D80832091990280917E
:1053B00097028F5F82238093970290E0019630E0FE
:1053C0008223932320919802422F50E0841795075F
:1053D00019F4E9985998519A80919702821379CFDC
:1053E00080E475CF45E04A95F1F700008150B7CFD2
:1053F000882309F4B8CFFF91EF91BF91AF919F91AE
:105400008F917F916F915F914F913F912F910F906D
:105410000FBE0F901F90189580911101909112016D
:105420009093A5028093A4028091110190911201A2
:10543000892F9927909312018093110183E2A6CFBF
:1054400095E09A95F1F700008150499902C08111C9
:10545000F7CF499B1EC0811116C080911101909118
:1054600012019093A5028093A40280911101909162
:105470001201892F9927909312018093110181E2E3
:1054800085CF84E6E2CF45E04A95F1F700008150F0
:10549000E0CF8111B0CFE1CF81E13BCFCDB7DEB717
:1054A000AC970FB6F894DEBF0FBECDBF85B780684E
:1054B00085BF85B7806885BF84B7877F84BF0FB6F7
:1054C000F894A895809160008861809360001092A4
:1054D00060000FBE80E890E00FB6F8948093610002
:1054E000909361000FBE81E0809319020E94620BCD
:1054F00085E79AE090935F0180935E010E94171107
:105500000E94C20C0E94A40D8091E20084608093EE
:10551000E20078948091D801882399F08091E90085
:105520001091EC001795112717958F70182B10927A
:10553000E9008091E80083FD0E9420181F701093FD
:10554000E90082E084BD93E095BD9AEF97BD80931A
:105550006E000E943010811102C00E9410188091CC
:10556000BA0181608093BA01E8EAF2E080E1DF01EC
:105570001D928A95E9F72E9826982F9827980E94D1
:10558000880780916900886080936900E99888EABB
:1055900091E0909396028093950210929702109258
:1055A00098028FE0809399020E948D0780E090E03E
:1055B0000E94F931883E9E4F21F40E9430108111E3
:1055C00002C00E949E1C82E090E00E94EB3180931A
:1055D000BA010E94221090938C0280938B020E9449
:1055E000AD13EFEFF6E721E0E150F0402040E1F7A6
:1055F00000C000000E94AD138091A80280FF08C087
:105600006FEF7FEF80E090E00E941D320E94030C5C
:1056100083E090E00E94EB310E94ED1A80E090E080
:105620000E94F931883E9E4F21F40E943010811172
:1056300002C00E949E1C88E190E00E94F331272F57
:10564000462F572FBC0140931502509316026093CA
:10565000170270931802922F969596959695862F1D
:1056600083708295880F807E892B80930F01452B54
:10567000462B472B11F0811173C00E946D1C81E0F5
:1056800080938F022D98259A80911902823011F40F
:105690000E94340D249A81E091E09093DA01809386
:1056A000D901F8EB4F2EF2E05F2EA2E12A2E33242F
:1056B0003A948091D801853059F48091D801853091
:1056C00009F451C00E94A1130E94660B0E94350F7D
:1056D0000E94AD13882359F08FB7F894409191023E
:1056E0005091920260919302709194028FBFE8EA08
:1056F000CE2EE2E0DE2EEBEBF1E0D60100E010E092
:105700002D913D918191919182179307A1F082276C
:1057100093277C0141E0E422FF2460E0E114F104DE
:1057200009F07AC0EE24E394F12C6F5FEE0CFF1CBD
:10573000603109F06BC00F5F1F4F0830110501F792
:1057400039823A821B820E94B90B8160782F9D8337
:105750008C8349815A816B81892F0E94BD277CC02F
:105760000E94560B8CCF8091D801843039F180E0B3
:105770000E94350F1092B80148E150E080E40FB666
:10578000F894A895409360000FBE8093600083B7A3
:10579000817F846083BF83B7816083BF789488955D
:1057A00083B78E7F83BF0FB6F894A8958091600071
:1057B000886180936000109260000FBE8091B901F3
:1057C000882309F47ACF0E94AD13E8EAF2E08191D0
:1057D0009191892B21F44E165F06C9F76ECF90E1A7
:1057E00099BD29BC09B400FEFDCF8091D8008F7D02
:1057F0008093D8008091E00082608093E0008091E7
:10580000E00081FDFCCF0E94A11357CFAC014E21D7
:105810005F21452B09F489CF69830A832E213F211B
:1058200081E0232B09F480E08B830E94B90B816017
:10583000782F9D838C8349815A816B81892F0E94A7
:10584000BD27000F111FF801E554FE4F80819181A3
:105850008E259F25918380838091CE018823B9F086
:105860008091CC019091CD010E94F40B9C0180911C
:105870000F0190E08217930708F04BC080918F02D0
:10588000811145C02D9A1092CE011092CB018091CA
:10589000820280FF1CC08091100182FF18C00E940C
:1058A000B90BBC0180911A0290911B029B01281B2D
:1058B000390B80910D0190910E012817390738F0AE
:1058C00041E080911C0290911D020E94901B0E9459
:1058D000660B9091CF01891721F08093CF010E9430
:1058E000350F8091D801843009F0E3CE83E08093B6
:1058F000E9008091E80082FFDCCE8091E80085FD20
:1059000026C08091E8008B778093E800D2CE2D9856
:10591000BACF8091160282FFBACF8091CB0122FDCF
:105920000BC08111B4CF81E08093CB0180918F02B5
:10593000882359F02D9AABCF882309F4A8CF109271
:10594000CB0180918F028823A9F32D98A0CF0E94CC
:10595000910C40E2E42EF12C8E010F5F1F4F882343
:1059600061F18091E8008B778093E8000091D60187
:105970001091D701E9810115110569F1EE3F09F098
:105980005EC08A81833020F08550833008F057C094
:10599000EA81EE3008F053C0F0E0E756FC4C0C947E
:1059A00081318091F100D8018C93B1E0EB1AF108BC
:1059B000E114F104B1F20F5F1F4F8091E80085FD03
:1059C000F0CF8091E8008B778093E8000E94910CE3
:1059D000882399F3C6CFE43150F4EE2351F0E1501F
:1059E000E33138F4F0E0E955FC4C0C948131EE3FA2
:1059F00079F2398224C01A8289E08B8320C08A819F
:105A0000823011F1833049F1813099F78FB7F894E2
:105A10002091910230919202409193025091940210
:105A200029A73AA74BA75CA78FBF69A57AA58BA525
:105A30009CA50E9487316B837C838D839E83CE01DE
:105A400001960E940F0D35CE86E290E00E94EB3168
:105A50001B821C821D828E83F2CF8091D401909193
:105A6000D501892B61F3FE013196D6018C911196F7
:105A70009C91B2E0CB0ED11C92838383329628EBAB
:105A8000C21622E0D20689F7DACF8A81823009F085
:105A900050C28B819C81AD81BE8189A79AA7ABA79B
:105AA000BCA7BC01CD010E94873186E290E00E9434
:105AB000FF31C5CF4C816B818A810E9449109827A4
:105AC000892798279E838D83BACF2D813E813227E7
:105AD000232732274C816B818A810E94EB0FAFCF45
